:4000000000800020110000001D6900001D69000008B5044B1A6803F53F5302331A6006F09DFC00BFFA46004010B5054C237833B9044B13B10448AFF300800123237010BDCC
:40004000A881FF1F00000000A07A0000084B10B51BB108490848AFF300800848036803B910BD074B002BFBD0BDE81040184700BF00000000AC81FF1FA07A0000C880FF1F0E
:40008000000000002DE9F041069F002A05DB002B03DB7F2801DC3F2903DD02F0A1F9BDE8F081C5B2D6B2C1F3C408C3F3C4043146284600F0BFF82146404600F0C9F8751B1C
:4000C0000135EDB2C8EB040808F101085FFA88F8002618E004F11003AB4208DC05FB06401021384400F0C2F81034E4B207E005FB0640291B384400F0B9F802E00024A542A8
:40010000E8D80136F6B2B045F8D802F069F9BDE8F08100BF08B5052004F0E0FD06F03CFF08BD00BF08B5024800F046F808BD00BFA47A000010B586B0184806F09FFF62B6EC
:4001400006F0BCFE06F0AAFC00F030F800F0B2F801F0C4FA124805F083F806F061FF02A804F00CFD0F4B029302A804F00DFD00F0B5FC002106F0DAF904460B4906F02EF92E
:40018000002100910B460A46204600F0B3FD05F021FA052006F0A4FEF9E700BF150100002501000085000000B07A000008B50C2006F072FF08BD00BF0FB4F0B583B008AC6C
:4001C00054F8047B0C4D4FF4FA7632460021284607F015F8019423463A463146284607F051F8284606F06CFE044806F069FE03B0BDE8F04004B07047C481FF1FC07A000073
:4002000010B582B000248DF804408DF8050006F043FE2346022201A93C2006F0BBFD02E0012006F05DFE06F01BFE0228F8D102B010BD00BF38B505460C462120FFF7E0FFA4
:400240002846FFF7DDFF2046FFF7DAFF38BD00BF38B505460C462220FFF7D2FF2846FFF7CFFF2046FFF7CCFF38BD00BF98B500AF0A464C1C01F1080323F00703ADEB030D3F
:400280006B46402103F8011B0146184606F0ACFF06F002FE0023E2B269463C2006F07AFD02E0012006F01CFE06F0DAFD0228F8D1BD4698BD10B5ADF5806D0A2006F010FEFD
:4002C000AE20FFF79DFFD520FFF79AFF8020FFF797FFA820FFF794FF3F20FFF791FFD320FFF78EFF0020FFF78BFF4020FFF788FF8D20FFF785FF1420FFF782FF2020FFF7BD
:400300007FFF0020FFF77CFFA120FFF779FFC820FFF776FFDA20FFF773FF1220FFF770FF8120FFF76DFF0F20FFF76AFFD920FFF767FFF120FFF764FFDB20FFF761FF402032
:40034000FFF75EFFA420FFF75BFFA620FFF758FF7F210020FFF76EFF07210020FFF778FFAF20FFF74DFF4FF4806422460021684606F045FF21466846FFF778FF0DF5806D11
:4003800010BD00BF90F8343013F0020F16D000230362436290F8282002F0FE0263F3410280F8282090F83420C36203638383C38302F0FE0263F3410280F83420704700BF03
:4003C0002DE9F04106468846011D08F1100004F00BFD40B308F10407384604F08DFE044600250AE021463046FFF7EAFF054630B92146384604F08CFE0446002CF2D1ADB93A
:40040000404601F0DBF948B910E0204600F0D4FB38B9204600F074FB044600E04446002CF3D11CB901E0002500E045462846BDE8F08100BF2DE9F04F83B00546446903E015
:40044000204600F05DFB0446204601F0C9F908B1002CF5D1002C00F08280204601F0B4F900287CD0B5F90C202B8A13441BB22B82B5F90E106A8A0A4412B26A82297F11F063
:40048000010F0DD1002BB8BF5B42092B04DC002AB8BF5242092A03DD2B7F43F001032B772B7F13F0010F5AD0EB68002B57D0204600F044FB0646204600F04CFB074601F0E8
:4004C0000FFD0190B4F91080B4F91290204600F017FB00F04BFB8346204600F011FB00F04DFB8246B5F90C10B5F90E203A44314412B209B2204600F0B7FBB4F91030984520
:4005000003D1B4F91230994513D02B7F13F0010F0AD0A369134A12680E212046984795F8283013F0020F1AD12B7F43F002032B7715E0204600F0E4FA00F018FB0546204604
:4005400000F0DEFA00F01AFBAB4508D1824506D101F0C6FC019BC01A80B201F0C7FC03B0BDE8F08FB883FF1F70B54669037F13F0040F40F0D58004467EB900F0B5FA0146B0
:400580002046FFF71DFF0646F0B900F0A7FA01462046FFF715FF064616E013F0020F13D11021304601F082F970B900F09DFA01462046FFF705FF064630B900F08FFA0146ED
:4005C0002046FFF7FDFE0646606986424CD0B4F904302381B4F90630638150B18369514A12680A21984794F8283013F0020F40F097806661A661002E36D004F079FB206228
:4006000094F828306FF3000384F82830237F03F0FE036FF341032377002525826582A581E581606907E090F82C3013F0200F00D0054600F065FA0028F5D155B1284600F006
:400640005FFA04302A46014604F0EEFD284600F0B9FA60698369334A12680821984794F8283013F0020F5BD1B4F90430B4F908209B1AA381B4F90630B4F90A209B1AE3810C
:40068000606900284CD08369264A12680921984794F8283013F0020F42D12046FFF7CAFE94F8283013F0020F3AD1227F12F0020F1AD113F0010F17D1206A04F025FBB0F53F
:4006C000C87F11D9B369174A12680C213046984794F8283013F0020F22D143F0010384F8283004F005FB6062237F13F0020F17D194F8283013F0010F12D0606A04F004FB70
:4007000064280DD9B369074A12680D213046984794F8283013F0020F02D104F0E9FA606270BD00BFB883FF1F037F13F0020F7FD070B584B00546846903E0204600F0E0F9AC
:400740000446204601F04CF808B1002CF5D1002C6CD0204601F03EF850B92B7F6FF341032B77A369334A12680F21204698475DE0B5F90C3003EB83031A012F4981FB0203D2
:40078000D217C2EB6312AA81B5F90E2002EB8202130181FB0321DB17C3EB6113EB81EB68002B39D06946204600F0C2F9204600F0C5F9B5F90C60304406B2204600F0CAF9C8
:4007C000B5F90E20024412B23146204600F04CFA02A9204600F0ACF9BDF90020BDF908309A4202D0B5F90C3003BBBDF90220BDF90A309A4202D0B5F90E30BBB92B7F6FF35E
:4008000041032B770023AB81EB81A369094A12680F212046984709E02B7F6FF341032B77A369044A12680F212046984704B070BD704700BFB883FF1F1F85EB5138B50446DE
:40084000037F13F0040F08D000234361836103624362027F63F382020277606948B3102101F024F8A0B161692046FFF7A9FD6369834206D19D69144A12680B211846A847A1
:400880000CE09D69104A12680A211846A84705E0606983690C4A12680B21984794F8283003F0020303F0FF026BB962B9636123626362A3693BB194F8283013F0020F02D1A5
:4008C0002046FFF731FF38BDB883FF1F38B504460D46006C48B162690B689A4205D0B1F90220B1F9001000F0BFF9B5F900302382B5F902306382237B012B04D104F10C002A
:40090000FFF732FE03E004F10C00FFF797FFB4F91030A382B4F91230E38238BD10B50446036C0A6833F9222002820A6803EB8203B3F902304382426903699A4206D10B7A0D
:40094000012B03D10C30FFF70FFE03E004F10C00FFF774FFB4F91030A382B4F91230E38210BD00BF30B585B0264B40F227122649002004F07BFC002004F078F9044634E026
:40098000224B1C602046FFF7FDFC94F8343013F0040F26D101A9204604F070F905462046FFF7F0FC9DF80C302373012B02D104F09FF9E0632378012B04D101A92046FFF725
:4009C00085FF09E0022B07D0042B05D0032B03D101A92046FFF7A2FF2046FFF7D3FC002DD8D1204604F042F90446002CC8D10020064B1860064B4FF4A972034904F036FC2A
:400A000005B030BDC47A0000D87A0000B883FF1FF47A0000014B1868704700BFB883FF1F08B530B190F8343043F0020380F8343008BD002004F01AF907E090F8343043F092
:400A4000020380F8343004F011F90028F5D108BD08B5002303223221034804F015FD0020FFF7DEFF08BD00BF65090000F8B50E461546071D384604F03FFB044617E0B2B285
:400A8000238A13442382ABB2618A19446182A18A0A44A282E28A1344E3822A4631462046FFF7E4FF2146384604F032FB0446002CE5D1F8BD90F82C3061F3000380F82C3024
:400AC000704700BF81617047C161704710B50446006A04F09FFC206210BD00BF014B1868704700BF380D0020014B1868704700BF340D0020014B1868704700BF5C0D0020E3
:400B00000068704710B5044600E01C462046FFF7F7FF03460028F8D1204610BD08B519B9043004F0E9FA08BD043004F0F1FA08BD50F8102F43680A604B60704710B5044642
:400B4000FFF7DEFFB4F91030B0F91000181A00B210BD00BF10B50446FFF7D2FFB4F91230B0F91200181A00B210BD00BFB0F91430B0F91000181A013000B27047B0F916303B
:400B8000B0F91200181A013000B27047416A61B9036806E05A6A1AB1107810F0010F03D01B68002BF6D100E0114601B901490846704700BF100C002090F82C00C0F3001077
:400BC000704700BF30B583B00546FFF7F5FF002847D12846FFF796FF0446FFF77FFF844207D0FFF781FF844203D0FFF783FF844237D12846FFF784FF0446B5F930306A465A
:400C000055F8100F696803C29BB2BDF80020D21AADF80020BDF80220D21AADF80220BDF804201A44ADF80420BDF806201344ADF8063001250FE004F110026946684604F0DB
:400C400083F8054648B12046FFF7B6FF48B92046FFF756FF0446002CEDD115B1684601F0EFF803B030BD00BF2DE9F04383B00668B6F91070394489B2B6F91240224494B295
:400C8000B0F91070CF1BBFB20FFA87F8B0F91220A41AA4B20FFA84F9B8F1000F02D1B9F1000F24D00546FFF78DFF69462846FFF73FFF2B8A3B442B826B8A23446B82AB8AFE
:400CC0001F44AF82EB8A1C44EC824A4641462846FFF7CCFEAB696A46022128469847B3692A460121304698472846FFF76BFF03B0BDE8F0832DE9F04706460F4690469A4664
:400D0000BDF92090FFF71AFF05463046FFF722FF04461FB93046FFF7F3FE0746B8F1140F00F25B81DFE818F0150057013400450050005B00740087009800B100B800CD00D7
:400D4000DC00E200F60004010B0120012F01350149013846FFF70AFF05463046FFF706FF05EBD57500EBD0704010C0EB650005B23846FFF703FF04463046FFF7FFFE04EB10
:400D8000D47400EBD0704010C0EB640004B224E13846FFF7EBFE05463046FFF7E7FE05EBD57500EBD0704010C0EB650005B2002413E13846FFF7DAFE05463046FFF7D6FE42
:400DC000281A05B2002408E13846FFF7D7FE04463046FFF7D3FE201A04B20025FDE03846FFF7C4FE05463046FFF7C0FE05EBD57500EBD0704010C0EB650005B23846FFF790
:400E0000BDFE04463046FFF7B9FE201A04B2E4E03846FFF7ABFE05463046FFF7A7FE281A05B23846FFF7AAFE04463046FFF7A6FE201A04B2D1E03846FFF7A0FE044630467B
:400E4000FFF79CFE04EBD47400EBD0704010C0EB640004B20025C0E03846FFF787FE05463046FFF783FE281A05B23846FFF786FE04463046FFF782FE04EBD47400EBD070EC
:400E80004010C0EB640004B2A7E03046FFF776FE404204B20025A0E03846FFF767FE05463046FFF763FE05EBD57500EBD0704010C0EB650005B23046FFF760FE404204B26A
:400EC0008BE03846FFF752FE05463046FFF74EFE281A05B23046FFF751FE404204B27CE03846FFF74BFE0446002576E03846FFF73DFE05463046FFF739FE05EBD57500EB34
:400F0000D0704010C0EB650005B23846FFF736FE044662E03846FFF729FE05463046FFF725FE281A05B23846FFF728FE044654E03046FFF71BFE404205B200244DE030461B
:400F4000FFF714FE404205B23846FFF717FE04463046FFF713FE04EBD47400EBD0704010C0EB640004B238E03046FFF7FFFD404205B23846FFF702FE04463046FFF7FEFD8B
:400F8000201A04B229E03846FFF7F0FD0546002423E03846FFF7EAFD05463846FFF7EEFD04463046FFF7EAFD04EBD47400EBD0704010C0EB640004B20FE03846FFF7D6FD16
:400FC00005463846FFF7DAFD04463046FFF7D6FD201A04B201E0002425463046FFF790FDB7F910E0B7F91230B0F91010B0F912200AEB0E00284485B209EB0300204484B20C
:40100000691AA21A12B209B23046FFF72DFE86F83C80A6F838A0A6F83A90776396F83D306FF3410386F83D30BDE8F0872DE9F04F83B004460F4691469B46BDF930A0FFF766
:401040007DFD05462046FFF785FD06462046FFF78DFD00EBD07040F34F082046FFF78EFD00EBD07040F34F0301931FB92046FFF747FD0746B9F1140F00F21081DFE819F0D6
:40108000150027002E003A0044004E005D006A00770087008E009A00A400AE00BD00CA00D100DE00E800F20002013846FFF75EFD00EBD070C8EB60052DB23846FFF75EFDE8
:4010C00000EBD070019BC3EB600636B2E6E0C8F100052DB2019B5E4236B2DFE03846FFF745FD00EBD070C8EB60052DB2019B5E4236B2D3E03846FFF739FDC8EB000005B224
:40110000019B5E4236B2C9E0C8F100052DB23846FFF734FD019BC01A06B2BFE03846FFF725FD00EBD070C8EB60052DB23846FFF725FD019BC01A06B2B0E03846FFF716FD40
:40114000C8EB000005B23846FFF718FD019BC01A06B2A3E0C8F100052DB23846FFF70EFD00EBD070019BC3EB600636B296E03846FFF7FCFCC8EB000005B23846FFF7FEFC32
:4011800000EBD070019BC3EB600636B286E0C8F100052DB2019B5E4236B27FE03846FFF7E5FC00EBD070C8EB60052DB2019B5E4236B273E03846FFF7D9FCC8EB000005B245
:4011C000019B5E4236B269E0C8F100052DB23846FFF7D4FC019BC01A06B25FE03846FFF7C5FC00EBD070C8EB60052DB23846FFF7C5FC019BC01A06B250E03846FFF7B6FC24
:40120000C8EB000005B23846FFF7B8FC019BC01A06B243E0C8F100052DB2019B5E4236B23CE0C8F100052DB23846FFF7A7FC00EBD070019BC3EB600636B22FE0C8F10005AA
:401240002DB23846FFF79AFC019BC01A06B225E03846FFF78BFCC8EB000005B2019B5E4236B21BE03846FFF781FCC8EB000005B23846FFF783FC00EBD070019BC3EB6006A5
:4012800036B20BE03846FFF771FCC8EB000005B23846FFF773FC019BC01A06B22046FFF72FFCB7F910E0B7F91230B0F91010B0F912200BEB0E00284485B20AEB030030442F
:4012C00086B2691AB21A12B209B22046FFF7CCFC84F83C90A4F838B0A4F83AA0676394F83D3043F0020384F83D3003B0BDE8F08F00B583B090F83D3013F0020F0AD0B0F953
:40130000383090F83C20B0F93A100091416BFFF78DFE09E0B0F9383090F83C20B0F93A100091416BFFF7E6FC03B05DF804FB00BFF8B50D460646002853D19E4B87229E49F3
:4013400003F094FF9D4803F095FE044630B99C4B8A229949032003F089FFFEE7002800F02281002740F8047B442103F077FE278267827F23A3823F23E382278684F83C70F6
:4013800027876787676394F83D3067F3000384F83D3005F0B1F910B10368636201E0894B636289492046FFF78DFB88492046FFF78BFB00232364A36294F82C2002F0C002DA
:4013C00063F3861284F82C2084F82D30FF2284F82E2023627E4BC4227749012003F046FF57E07C4BC8227449002003F03FFF301D03F040FE044630B9714BCB226E490320FC
:4014000003F034FFFEE7002800F0CF8040F8046B442103F023FEB6F910302382B6F912306382B6F910306433A382B6F912304233E3820023238684F83C302387638763632C
:4014400094F83D2063F3000284F83D2005F054F910B14368636201E05F4B63625A492046FFF730FB59492046FFF72EFB00222264A26294F82C3043F0010384F82D20FF218A
:4014800084F82E1003F0C10362F3861384F82C302262002D7CD02B4653F8102F5B6822616361B5F9303023862B6C2364AB6AA36295F83C3084F83C30B5F938302387B5F9B5
:4014C0003A3063876B6B636395F83D2094F83D3062F3000384F83D3095F82C2094F82C3062F3000384F82C3095F82C30C3F3400394F82C2063F3410284F82C2095F82C30E3
:40150000C3F38003D2B263F3820284F82C2095F82C30C3F3C003D2B263F3C30284F82C2095F82C30C3F30013D2B263F3041284F82C2095F82C30C3F34013D2B263F34512F6
:4015400084F82C2095F82C30C3F38013D2B263F3861284F82C2095F82D3084F82D3095F82E3084F82E306B6A63622846FFF7E6FA07462846FFF7EEFA024639462046FFF715
:4015800073FB164B4FF49A720B49012003F06EFE6EB1B36922460121304698472046FFF711FB2046F8BD0020F8BD0020F8BD2046F8BD00BF087B0000207B00004C0D002081
:4015C0003C7B0000800C0020BD1800000D1800004C7B0000607B0000F00C0020787B000070B582B004460D461646FFF7BFFAA84204D12046FFF7C2FAB04228D02046FFF7C1
:40160000E1FA69462046FFF793FAB4F910301D44013DA582B4F912301E44013EE682A3696A460221204698472046FFF769FA18B1856922460121A8472046FFF7C3FA94F8D4
:401640003D3013F0010F02D02046FFF751FE02B070BD00BF38B504460D46FFF787FA2A4601462046FFF7BCFF38BD00BF10B50446FFF7A8FAA36900220321204698472046A8
:40168000FFF7A0FA10BD00BF38B505460021FFF745FA044614E0636A33B92046FFF7F4FF2046FFF7E3FF06E01B7813F0010F02D02046FFF7E9FF21462846FFF72FFA04461C
:4016C000002CE8D138BD00BF10B504464162FFF7DBFF2046FFF7CAFF10BD00BF2DE9F843DFF8B8900024C9F80040234D2C60234F3C60DFF8AC80C8F80040214B1C60214B28
:401700001C60214E214B48223146204603F0AEFD03F00EFE04F00CF803F0F8FB00F0F8FB00F076FB44211A4803F098FC21462046FFF7FEFDC9F80000286021462046FFF734
:40174000F7FD3860134F3946FFF7BEFF21462046FFF7EEFDC8F800003946FFF7B5FF2868FFF730FAFFF774F90B4B73223146012003F07CFDBDE8F883380D0020340D0020CA
:401780007C0D0020600D0020207B0000D87B00004C0D0020D80B0020E87B00003C0D00205C0D002010B50446002202868369042198472046FFF706FA10BD00BF90F82C00EF
:4017C00000F00100704700BF90F82C00C0F34000704700BF90F82C00C0F38000704700BF90F82C00C0F3C000704700BF08B509E090F82C3013F0400F02D090F82E0008BD42
:40180000FFF77EF90028F3D1FF2008BDF0B583B004460D46022A33D1FFF7B8F9837E13F0010F2BD1868843F6FF739E4226D069462046FFF77DF9BDF800303344ADF80030CE
:40184000BDF804309B1BADF804306946284603F00BFB98B169462046FFF76AF9BDF802303344ADF80230BDF806309E1BADF806606946284603F0F8FA034698B9002311E08F
:401880007AB9FFF783F9074604F110062046FFF7ADFF03463A462946304602F075FC012300E00123184603B0F0BD00BF90F82D300B4214BF01200020704700BFF8B50546B9
:4018C0000C461746FFF762F90646FFF7A3F8A4F10803DBB20A2B04D818B1836B0BB121469847012C06D101212846FFF7DFFFC8B90120F8BD042C08D1B6F91030B5F930205F
:40190000934211DD2B860120F8BD032C04D12846FFF748FF0120F8BD062C07D1044B3B600120F8BD0020F8BD0120F8BD0120F8BDF87B000080697047006A70472DE9F04F04
:4019400083B0002542E005EB85025300234A13441B7AD3BB002433E004EB840253001F4A13441B7A5BBBAC4229D0904605EB85035F0002EB070904EB84035900561831468D
:40198000484603F04FFAD0B132464946684603F007FA684603F0CAF98346484603F0C6F98246304603F0C2F95044834507D26B4603CB48F80700C9F804100122327201340E
:4019C000064BB3F840319C42C6D30135034BB3F840319D42B7D303B0BDE8F08FBC83FF1F2DE9F04107468846103103F03DFA68B398F82C3013F0100F2AD108F1040630465C
:401A000003F07AFB044600250AE021463846FFF7E7FF054630B92146304603F079FB0446002CF2D1BDB94046FFF7B0F88379FF2B11D1D8F81C30022239464046984750B1AC
:401A40004046FFF7D3FEFF2805D103E0002502E0002500E045462846BDE8F08190F82C3013F0100F6AD170B58AB00E460446B0F9305004A9FFF75CF8ABB2BDF81020D21A92
:401A8000ADF81020BDF81220D21AADF81220BDF814201A44ADF81420BDF816201344ADF8163004AA314606A803F04EF9002843D0E369002206A92046984704A92046FFF7A7
:401AC00037F804AA314608A803F03EF978B3261D304603F017FB054627E002A92846FFF727F82B8EBDF80820D21AADF80820BDF80A20D21AADF80A20BDF80C201A44ADF882
:401B00000C20BDF80E201344ADF80E3002AA08A9684603F019F918B169462846FFF79EFF2946304603F000FB0546002DD5D1E369012206A9204698470AB070BD704700BF22
:401B40002DE9F0410E46804610B9FEF7C7FF804631464046FFF782FF4046FEF7D1FF0746414615E03D1D284603F0DEFA044608E031462046FFF772FF2146284603F0D4FA93
:401B80000446002CF4D13846FEF7BAFF39460746002FE7D14046FEF7B3FF044608E0E36901223146204698472046FEF7A9FF0446002CF4D1BDE8F08110B582B0044600F0FC
:401BC000DFFB38B9114B4FF4D9721149022003F04DFB19E002462146684603F0B5F8FEF77DFF01466846FFF7FBFE6946FFF7A8FFFEF77AFF6946FFF7A3FFFEF77BFF69460F
:401C0000FFF79EFF00F0C8FB02B010BD007C0000147C00002DE9F04182B00546B0F90430B0F900209A1A013212B2B0F90670B0F90230FB1A01331BB23F2F00DD3F274FF4BA
:401C4000A061B1FBF2F21E469A4200DC1646374BD3F844312BB30023ADF80030ADF80430ADF8023034B2ADF80640304BD3F8443168469847013C24B2BDF90620BDF9023023
:401C8000D31A01331BB29E4201DA002CEBD13CB9274B4FF4BA722749022003F0E7FA42E0561CB5F902404FF0000820E000F068FB034638B9204B40F281121E49022003F053
:401CC000D5FA30E0B5F900200280B5F90420828044803444A4B2621E12B2C280974200DAC780B3F906802846FFF766FF24B2A319013BBB42DADDB84515D000F041FB38B953
:401D00000D4B40F293120B49022003F0AFFA0AE0B5F900200280B5F9042082804480C7802846FFF749FF02B0BDE8F081BC83FF1F307C0000147C0000007C000070B5002477
:401D4000124BC3F848411AE004EB840253000F4A13441B7A93B9164604EB8403580015182846FFF757FFD6F84C313BB1284602F0DDFFD6F848311844C6F848010134034BBE
:401D8000B3F840319C42DFD370BD00BFBC83FF1F38B51A4BBB221A49002003F067FA02F0A7FF044602F024FF28B9164BC022144903F05CFA38BDFFF7C1FDFFF7BFFF124BAD
:401DC000B3F840319BB1104D4FF4A0720021284605F015FA0023A5F84031D5F84C5135B1204602F091FF084BD3F84811A847074BF9220349002003F039FA38BD807C000077
:401E0000147C0000A07C0000BC83FF1FBC7C000010B509480024A0F840414FF4A072214605F0EDF9234603221E21044803F02CFB03F06EFC10BD00BFBC83FF1F911D000050
:401E400020B90022254BA3F84021704730B585B001460023ADF80830ADF80A307F23ADF80C303F23ADF80E3002AA684602F06CFF90B31A4BD3F844310BB168469847002430
:401E80000AE004EB8402530014491944684602F0EBFF08BB0134A4B2104BB3F840319C42EFD31F2B09D80D4C03EB83035A00A5186B4603CBA050696008E0084B0022A3F888
:401EC000402104AA12E9030083E80300034AB2F840310133A2F8403105B030BDBC83FF1F014BB3F840017047BC83FF1F074BB3F84031834204D20022044BA3F84021704748
:401F00001B1A024AA2F84031704700BFBC83FF1F2DE9F04FDB4B1A786FF300021A70FF229A71997841F001019970D97841F00101D97000269E8008219982D9821983197AEF
:401F400066F3000119725A735E810F211973997B41F001019973012199741E8283F82820197F66F300011977C74919624FF0020EA3F824E0A3F826E083F82E2093F82C1003
:401F800066F3000183F82C1083F82D6083F8342093F8302066F3000283F83020A3F832E093F8352066F3000283F83520B74F3D461C460FCC0FC50FCC0FC50FCC0FC594E80C
:401FC000030085E80300DFF8D8824446BC46BCE80F000FC4BCE80F000FC4BCE80F000FC495E8030084E8030098F81C3043F0010388F81C3098F82C3043F0010388F82C3052
:4020000098F8303043F0010388F8303098F8023043F0010388F8023088F803309C4CA046BC46BCE80F00A8E80F00BCE80F00A8E80F00BCE80F00A8E80F0095E8030088E885
:402040000300237F66F30003237794F82C3066F3000384F82C3094F8303066F3000384F83030A37843F00103A370E37843F00103E3704FF0060CA4F804C0237A66F3000391
:402080002372A4F80AE04C236373DFF818A2D1460FCCA9E80F000FCCA9E80F000FCCA9E80F0098E8030089E803009AF81C3043F001038AF81C309AF82C3043F001038AF826
:4020C0002C309AF8303043F001038AF830309AF8023043F001038AF802309AF8033043F001038AF803309AF8083066F300038AF80830684CA246B846B8E80F00AAE80F004F
:40210000B8E80F00AAE80F00B8E80F00AAE80F0095E803008AE80300A37E43F00103A376237843F0010323706681DFF87C81C1460FCCA9E80F000FCCA9E80F000FCCA9E810
:402140000F009AE8030089E80300A8F81660A8F81460DFF858B1DA4644460FCCAAE80F000FCCAAE80F000FCCAAE80F0099E803008AE80300ABF81860474CA0460FCFA8E834
:402180000F000FCFA8E80F000FCFA8E80F0095E8030088E80300A37843F00103A370E37866F30003E370A4F804C01923E3821023A3820A232383237A66F300032372A4F85E
:4021C0000AE0B2236373A37B43F00103A3732682237F43F00103237794F82C3043F0010384F82C30DFF8C8E0754627460FCF0FC50FCF0FC50FCF0FC597E8030085E803001E
:402200009EF8023043F001038EF802309EF8033066F300038EF803309EF81C3043F001038EF81C309EF82C3043F001038EF82C309EF8303043F001038EF83030174D2F4627
:40224000A646BEE80F000FC7BEE80F000FC7BEE80F000FC79EE8030087E80300AB7866F30003AB70EB7843F00103EB702B7A66F300032B722B7F43F001032B7795F82C303D
:4022800018E000BF800C0020D880FF1F100C0020300B0020880A0020C00A0020480C0020F00C0020500A0020D80B0020680B0020F80A002043F0010385F82C3095F8303053
:4022C00043F0010385F83030DFF8B0C0E6460FCDAEE80F000FCDAEE80F000FCDAEE80F0097E803008EE803009CF8023066F300038CF802309CF8033066F300038CF8033027
:402300009CF81C3043F001038CF81C309CF82C3043F001038CF82C309CF8303043F001038CF83030144F3D460FCC0FC50FCC0FC50FCC0FC594E8030085E80300BB7843F058
:402340000103BB70FB7843F00103FB703B7A43F001033B723B7F66F300033B7797F82C3066F3000387F82C3097F8303066F3000387F83030BDE8F08FA00B0020B80C002099
:40238000034B1B7813F0FF0FFAD10248704700BF0C85FF1FCC80FF1F10B582B0FFF7F0FF30B90C4B60220C49022002F05FFF0FE004460122094B1A70B0F90000B4F9021080
:4023C000B4F90420B4F90630A468009402F016FC02B010BD007C0000DC7C00000C85FF1F0022014B1A7070470C85FF1F034698B1072809DC431E094850F82330585C00FB83
:4024000002F0C0F307207047480000FB0222580092FBF0F0C0B2704700207047F87C000003463038C0B2092818D9602B01D9203BDBB2413B052B0ED8DFE803F0030F05077D
:40244000090B0A2070470C2070470D2070470E2070470F207047002070470B20704700BF2DE9F04F93B00990059116469946DDF870809DF874A0136A04931AF0020F08D1E5
:40248000B0F90430B0F900209B1A01331BB2089311E0B2F92430CDF808A043F6FF720192B6F926200092049A41460EA803F03CFCBDF938300893049991F82020B6F92630DA
:4024C00013449BB20A939B461FB20998B0F90030ADF84430B0F90230ADF84630B6F92420CDF800A0089B404603F0CCFA0546002421465C46DDF814B016E0B6F92420CDF867
:4025000000A0089B049908EB050003F0BBFA2844BDF846302344ADF8463018F805302946002B00F04F810546BDF946303B44BBF902209342E1DB0C460AF0040303F0FF02BF
:402540000C92E3B1691AB6F92430CDF800A0049A89B208EB040003F0A3FB099AB2F90430B2F900209B1A01331BB2181A00EBD070BDF8443003EB6000ADF844001BE01AF018
:40258000080F18D0691AB6F92430CDF800A0049A89B208EB040003F083FB099AB2F90430B2F900209B1A01331BB2181ABDF844208318ADF84430B9F1FF0F02D196F828B0FD
:4025C00005E096F828B00BFB09F9C9F3072B1E9B002B00F0ED80B3F900300D931E9BB3F90220BDF846301344ADF84630E2E01E9B2BB1BDF844300D9A1344ADF8443010947E
:4026000000277AE0714B1B6810A94046984704461AF0010F50D023280BD127B9BDF840300B93012769E0012F02D0022F01D163E00027012F40D1202C5FD1109B0B9A9B1ACC
:40264000072B32D108EB020318680E909B88ADF83C3000238DF83E309DF83800FFF7E0FE05019DF83900FFF7DBFE05449DF83A00FFF7D6FE04019DF83B00FFF7D1FE0444BD
:402680009DF83C00FFF7CCFE07019DF83D00FFF7C7FE3844E41144EAE01343EAE513069A63F300020692022727E0337F069A63F300020692022720E0337F022F01D19DF8C8
:4026C0001830CDF804B08DF80030414B1D682346049A059911A8A8472146049802F042FC03B2002B09DDB6F924301844BDF844301844ADF8440000E00027109B994581D857
:4027000008EB0904B6F92420CDF800A0089B0499204603F0B7F900EB0905099BB3F90030ADF844300C9BD3B1B6F92430CDF800A0049A0146204603F0B3FA099AB2F9043066
:40274000B2F900209B1A01331BB2181A00EBD070BDF8443003EB6000ADF8440019E01AF0080F16D0B6F92430CDF800A0049A0146204603F095FA099AB2F90430B2F9002099
:402780009B1A01331BB2181ABDF844300344ADF84430BDF846300A9A13441BB2ADF84630059AB2F906204C4693420BDCA94604E000230D9300230B93A94618F80430002B27
:4027C0007FF415AF13B0BDE8F08F00BF0481FF1F4C7D00004910884203DB88B208B1013880B25210904203DB90B208B1013880B208B1013880B270472DE9F04F89B0054605
:40280000009117469088927801928DF80820FA7804928DF81720B5F80690B5F90240C4EB0904013424B2B5F904A0B5F900B0CBEB0A01013109B2FF2B01D1BE7904E0BE79DE
:4028400006FB03F3C3F307262246FFF7C3FF04EBD473B0EB630F6ADCADF818B0ADF81CA0049B019A534013F0010F1CD1B5F9023003449BB2ADF81A30C0EB090080B2ADF84C
:402880001E00B7F904202AB10233ADF81A300238ADF81E00274B1C6833469DF80420009906A8A04743E0B5F9023003449BB20FFA83FAC0EB090080B20FFA80FBB7F9042079
:4028C00032B103F1020A0FFA8AFA02380FFA80FBBAF1000F27DA4FF0000A9DF8179024E0ADF81AA0ADF81EA0B5F90630CAEB0303C3EB0323B3FBF4F313F0800F03D0029B9A
:4029000003F0010301E009F0010363F30008094B1F6833464246009906A8B8470AF1010A0FFA8AFA01E09DF81790DA45D8DD09B0BDE8F08F507D00002DE9F04F8BB004463A
:4029400002911746B2F90420069290B2B4F904B0B4F900200792C2EB0B01013109B2B4F80690B4F802A0CAEB0902013212B27D890495FF2B02D17B7B019305E07D7B05FB07
:4029800003F3C3F3072301933D7B3B7A0393049B5E1EB6B2FFF71EFF8046864205D9331A013B1BB2059333B203E0431C1BB200220592069A002A7FD105F0020303F0FF0700
:4029C000ABB1BDF81C30ADF82030ADF824B0B4F90230ADF822303344ADF82630434BD3F80080019B9DF80C20029908A8C04715F0080F21D0B4F904309A1BADF82020ADF80F
:402A0000243063880FB9002200E0049A1344ADF82230E38815F0010F01D1002200E0049A9B1AADF82630314BD3F80080019B9DF80C20029908A8C04715F0040F20D0B4F9D4
:402A40000030ADF820303344ADF8243063880FB9002200E0049A1344ADF82230E28815F0010F01D1002300E0049BD31AADF826301E4B1F68019B9DF80C20029908A8B847AE
:402A800015F0010F00F07881B4F90030ADF82030B4F90430ADF82430B4F906309E1BADF82260ADF82630114B1C68019B9DF80C20029908A8A0475FE103F1010B1FFA8BFB60
:402AC00005F0020303F0FF0204921BB1DA44ADF822A002E0C244ADF822A015F0010A07D0CBEB0909ADF8269006E000BF507D0000C8EB0909ADF8269015F0040F0FD0B4F972
:402B00000030ADF820303344ADF824309C4BD3F80090019B9DF80C20029908A8C84715F0080F0FD0B4F90430ADF824309B1B0AA820F8083D924BD3F80090019B9DF80C20D8
:402B40000299C847B4F90030BDF814205B449B1AADF82030B4F90430CBEB030B9344ADF824B0049B7BB1B4F90230ADF822303344ADF82630824BD3F80090019B9DF80C200F
:402B8000029908A8C847BAF1000F0FD0B4F90630ADF826309B1BADF82230794BD3F80090019B9DF80C20029908A8C847059B002B7AD005F00603062B1AD1B4F90030ADF810
:402BC000203043440133ADF82430B4F9023008EB03020232ADF822203344ADF82630684BD3F80090019B9DF80C20029908A8C84705F00A030A2B1BD1B4F90420C8EB0203FC
:402C0000013BADF82030ADF82420B4F9023008EB03020232ADF822203344ADF82630584BD3F80090019B9DF80C20029908A8C84705F00503052B19D1B4F90030ADF8203078
:402C400043440133ADF82430E3889A1BADF82220C8EB0303023BADF82630494BD3F80090019B9DF80C20029908A8C84705F00903092B19D1B4F90420C8EB0203013BADF879
:402C80002030ADF82420E3889E1BADF82260C8EB0303023BADF82630394B1E68019B9DF80C20029908A8B047B7F90430002B63D115F0060F15D0B4F90030ADF820300133AE
:402CC000ADF82430B4F90230ADF822300133ADF826302B4B1E68019B9DF80C20029908A8B04715F00A0F15D0B4F904305A1EADF82020ADF82430B4F90230ADF822300133F7
:402D0000ADF826301E4B1E68019B9DF80C20029908A8B04715F0050F15D0B4F90030ADF820300133ADF82430B4F906305A1EADF82220ADF82630124B1E68019B9DF80C2090
:402D4000029908A8B04715F0090F15D0B4F904305A1EADF82020ADF82430B4F906305A1EADF82220ADF82630054B1C68019B9DF80C20029908A8A0470BB0BDE8F08F00BF9A
:402D8000507D000070B101280ED0C1EBC101431EB1FBF3F1C9B2054B585C00FB02F0C0F30720704700207047CC207047587D00002DE9F04F9DB00391114605929488B2F889
:402DC0000A90127A8DF84F2091F80CB0FF2B02D14B7B049306E0059A527B02FB03F3C3F307230493A9F102091FFA89F98588B0F80080C8EB05010131C6884788F21B0132A1
:402E000012B209B22046FFF7E5FC044600EB080301339BB20A933B1801339BB209931BB21493331A013B9BB20C931BB215932B1A013B9BB20B9303B20E931A460DF16A011F
:402E40001BA802F033F8C9EB040423B20793002B01DB1A4600E000220DF1620119A802F025F8002308930F93CAE2BDF96610BDF96420914204DA9A1A12B21092119207E0E6
:402E8000069A9A1A92B211B21091013A12B211920E9A9A4200F0C180BDF83C70069BDD1B2DB20024B1E0052D06DD049A21462846FFF768FF064607E0049E3246214628462A
:402EC000FFF794FA301AC6B20BF00903092B20D1604BD3F800A0BDF838801FFA84F9059B1B7A0C9AD11949440B98404401300096039A09B200B2D047059B1B7A0C99414487
:402F000001310B98384448440096039A09B200B2D0470BF00503052B24D14E4BD3F800A01FFA84F9BDF83880059B1B7A0C9A02EB080E0EF101010A98C01BC9EB0000009628
:402F4000039A09B200B2D047059B1B7A0C99394449440A98C8EB000001380096039A09B200B2D0470BF00603062B24D1394BD3F800A0BDF838801FFA84F9059B1B7A099A13
:402F8000D11BC9EB01010A98C8EB000001380096039A09B200B2D047059B1B7A0999C8EB010101390A98C01BC9EB00000096039A09B200B2D0470BF00A030A2B23D1254BDB
:402FC000D3F800A01FFA84F9BDF83880059B1B7A099AC8EB020E0EF1FF310B98384448440096039A09B200B2D047059B1B7A0999C91BC9EB01010B98404401300096039A3B
:4030000009B200B2D047013424B2AC42FFF64BAFBDF96C300E93069B0F93BDF964300799994200F0E080BDF96E301293BDF820200D929B1A1DB200248A46CCE0052D0BDD0E
:40304000049E324621462846FFF79CFE301AC3B2069307E0547D0000049A21462846FFF7C5F906900BF00909B9F1090F11D1059B1B7A0C9A0D99511821440B9A02EB0A0068
:403080000138069A0092A64A1668039A09B200B2B0470BF00508B8F1050F11D1059B1B7A0C9A02EB0A0101390A9A0D98101A001B069A00929A4A1668039A09B200B2B0475F
:4030C0000BF00607062F11D1059B1B7A099A0D99511A091B0A9ACAEB02000130069A00928F4A1668039A09B200B2B0470BF00A0307930A2B12D1059B1B7A099ACAEB020144
:4031000001310B9A0D9810182044069A0092844A12681646039A09B200B2B0470AF1FF33089A2244934254D0B9F1090F12D1059B1B7A0C9A02EB0A0101390B9A0D9810185E
:403140002044069A0092764AD2F80090039A09B200B2C847B8F1050F12D1059B1B7A0C9A0D99511821440A9ACAEB02000130069A00926B4AD2F80080039A09B200B2C047C9
:40318000062F11D1059B1B7A099ACAEB020101310A9A0D98101A001B069A0092604A1768039A09B200B2B847079B0A2B11D1059B1B7A099A0D99511A091B0B9A02EB0A00E2
:4031C0000138069A0092564A1668039A09B200B2B047013424B2AC42FFF630AFBDF964300793129B08930BF00903092B36D1BDF96C300B9D2B449BB2119A9A1AADF85820D8
:40320000ADF85C30BDF96E300C9E33441BB2ADF85A30ADF85E30434B1C68DDF810904B469DF84F804246039F394616A8A047BDF96E302B441BB2ADF85830ADF85C30BDF94B
:403240006C3033449BB210981A1AADF85A20ADF85E304B464246394616A8A0470BF00503052B36D1BDF96E300A9DEB1A1BB2ADF85830ADF85C30BDF96C300C9E33449BB25E
:40328000119A9A1AADF85A20ADF85E30254B1C68DDF810904B469DF84F804246039F394616A8A047BDF96C30EB1A9BB2ADF8583010980344ADF85C30BDF96E3033441BB228
:4032C000ADF85A30ADF85E304B464246394616A8A0470BF00603062B42D1BDF96E30159AD118149AD21A91421EDDBDF96C200A998A1A92B2ADF8582011990A44ADF85C2090
:40330000099AD31A1BB2ADF85A30ADF85E30054B1C68049B9DF84F20039916A8A04703E0547D0000507D0000BDF96E300A9AD31A1BB2ADF85830ADF85C30BDF96C30099A90
:40334000D31A9BB2ADF85A30109A1344ADF85E30344B1C68049B9DF84F20039916A8A0470BF00A030A2B3BD1BDF96E300B9A13441BB2ADF85830ADF85C30BDF96C30099A10
:40338000D31A9BB2ADF85A30119A1344ADF85E30244B1C68049B9DF84F20039916A8A047BDF96E20159B9918149B9B1A994217DDBDF96C100B9B194489B2109BCB1AADF81B
:4033C0005830ADF85C10099B9B1A1BB2ADF85A30ADF85E30049B9DF84F20039916A8A0470DF16A011BA801F073FDBDF96620BDF964309A4204DA0DF1620119A801F068FD83
:40340000BDF96E301A460693BDF96C309A427FF72CADBDF83CA0CAEB02090FFA89F90024A5E000BF507D0000049D2A4621464846FEF7DCFF281AC5B20BF00903092B20D1F6
:403440007E4BD3F80080BDF83860A7B2059B1B7A0C9A02EB0A0139440B98304401300095039A09B200B2C047059B1B7A0C99314401310B98504438440095039A09B200B281
:40348000C0470BF00503052B22D16C4BD3F80080A7B2BDF83860059B1B7A0C9A02EB060E0EF101010A98CAEB0000C01B0095039A09B200B2C047059B1B7A0C995144394496
:4034C0000A98801B01380095039A09B200B2C0470BF00603062B21D1584BD3F80080BDF83860A7B2059B1B7A099ACAEB0201C91B0A98801B01380095039A09B200B2C04765
:40350000059B1B7A0999891B01390A98CAEB0000C01B0095039A09B200B2C0470BF00A030A2B22D1454BD3F80080A7B2BDF83860059B1B7A099AC6EB020E0EF1FF310B98E2
:40354000504438440095039A09B200B2C047059B1B7A0999CAEB0101C91B0B98304401300095039A09B200B2C047013424B24C45FFF65AAF0E9B0F9A9B1A002BB8BF5B4255
:403580004B454DD1049B5D080BF00903092B0ED1BDF83820059B1B7A0C9911440B9810440095264A1468039A09B200B2A0470BF00503052B0ED1BDF83820059B1B7A0C99A1
:4035C00011440A98801A00951C4A1468039A09B200B2A0470BF00603062B0ED1BDF83820059B1B7A0999891A0A98801A0095134A1468039A09B200B2A0470BF00A030A2B5F
:403600000ED1BDF83820059B1B7A0999891A0B9810440095094A1468039A09B200B2A047BDF96630BDF820A0CAEB03031BB20024DDF81C90CDF834A09A46BDE0547D000003
:40364000049A21465046FEF7D1FE06900BF00908B8F1090F11D1059B1B7A0C9A0D99511821440B9A02EB09000138069A0092554A1568039A09B200B2A8470BF00507052F01
:4036800011D1059B1B7A0C9A02EB090101390A9A0D98101A001B069A00924A4A1568039A09B200B2A8470BF00606062E11D1059B1B7A099A0D99511A091B0A9AC9EB0200CE
:4036C0000130069A00923F4A1568039A09B200B2A8470BF00A0307930A2B12D1059B1B7A099AC9EB020101310B9A0D9810182044069A0092334A12681546039A09B200B289
:40370000A84709F1FF33089A2244934252D0B8F1090F12D1059B1B7A0C9A02EB090101390B9A0D9810182044069A0092254AD2F80080039A09B200B2C047052F11D1059B37
:403740001B7A0C9A0D99511821440A9AC9EB02000130069A00921B4A1768039A09B200B2B847062E11D1059B1B7A099AC9EB020101310A9A0D98101A001B069A0092114AFE
:403780001668039A09B200B2B047079B0A2B11D1059B1B7A099A0D99511A091B0B9A02EB09000138069A0092064A1568039A09B200B2A847013424B25445FFF641AF1DB0A2
:4037C000BDE8F08F547D00002DE9F04FB9B01C9003912892908891781F918DF838101146D2781E928DF83020FF2B02D18B79119306E0289A927902FB03F3C3F30723119389
:403800001C99CC884D88631B01331BB21A4616938F880E88B91B013109B2FEF7DBFF1D9006440136B6B233B2ADF8DC3000EB050808F101081FFA88F80FFA88F2ADF8DE2000
:40384000ADF8D830241A013CA4B223B2ADF8DA303D1A013DADB229B2ADF8D410ADF8D620ADF8D010ADF8D23003B212931A460DF1AA012BA801F01AFBBDF8AC10BDF9AE20F6
:40388000224412B26B18711A00921BB209B22EA801F044FABDF8AE10BDF9AC20224412B26B18711A00921BB209B22CA801F036FABDF8AC10BDF9AE20C2EB080212B26B1882
:4038C000711A00921BB209B230A801F027FABDF8AE10BDF9AC20C2EB080212B26B18711A00921BB209B232A801F018FA00231393D046D9462CE2BDF9AC301299994200F0B0
:403900000181BDF9AE301793BDF84CB0CBEB03031BB204931D9B14935B1AC3EB0323169A1592B3FBF2F35BB2002B03DA0C9A02F0010202E00E9A02F00102189962F300012E
:403940008DF860108DF8A510002B03DA0E9B03F0010302E00C9B03F001031A9A63F300028DF868208DF8A4204FF0000A5546CA46C146BCE0049B052B06DD119A29461846CD
:40398000FFF700FA064607E0119C224629460498FEF72CFD201AC6B2A54B1F68BDF8D0300593ACB2BDF8D2200692BDF8488002EB080101310BEB0300204400969DF8A43092
:4039C000039A09B200B2B847BDF8D8200792BDF8DA10089141440131CBEB0200001B00969DF8A430039A09B200B2B847BDF8DC300993BDF8DE200A92C8EB02010139CBEB5C
:403A00000300001B00969DF8A530039A09B200B2B847BDF8D41008460B91BDF8D6101091C8EB010101395844204400969DF8A530039A09B200B2B847149B139A9B1A1D4436
:403A4000C5EB0525159BB5FBF3F56DB2002D03DA0E9B03F0010302E00C9B03F0010363F30009069B5B4419462144059B43441846013000964B46039A09B200B2B847089BEF
:403A80005B4419462144079BC8EB0300013800964B46039A09B200B2B847002D03DA0C9B03F0010302E00E9B03F0010363F3000A0A9BCBEB0301091B099BC8EB0300013842
:403AC00000965346039D2A4609B200B2B847109BCBEB0301091B0B9B984408F10100009653462A4609B200B2B847013425B2049B9D42FFF63FAFC846D146BDF9AC30129342
:403B0000179B1393BDF9BA00BDF9AE20BDF9DA105318984201D1002400E00124BDF9B230BDF9AC0001448B4201D1002700E00127BDF9C210BDF9DE309A1A914201D1002582
:403B400000E00125BDF9CA201B1A9A4201D1002300E001233BB39DF8380003460C994B4013F0010F01D1024617E01C9BB3F906309A1AC2EB0222169BB2FBF3F212F0800F4B
:403B800003D00E9B03F0010302E00C9B03F00103269A63F300028DF89820264B1E68119B039932A8B0473DB39DF8382013460C994B4013F0010F19D01C9BB3F90630BDF9FC
:403BC000C2209B1AC3EB0323169AB3FBF2F313F0800F03D00E9B03F0010302E00C9B03F00103249A63F300028DF89020114B1D68119B039930A8A84764B39DF838201346FA
:403C00000C994B4013F0010F1ED01C9BB3F90630BDF9BA209B1AC3EB0323169AB3FBF2F313F0800F08D00E9B03F0010307E000BF547D0000507D00000C9B03F00103229AB6
:403C400063F300028DF88820B64B1C68119B03992EA8A0473FB39DF8382013460C994B4013F0010F19D01C9BB3F90630BDF9B2209B1AC3EB0323169AB3FBF2F313F0800F52
:403C800003D00E9B03F0010302E00C9B03F00103209A63F300028DF88020A24B1C68119B03992CA8A047BDF8D870BDF8AC10BDF8DA40BDF8AE00BDF8D050BDF8D2604B19A6
:403CC0002218791A304400B200901BB212B209B22EA801F023F8BDF8AE10BDF8AC006B182218791A064436B200961BB212B209B22CA801F013F8BDF8DC70BDF8AC10BDF8E4
:403D0000DE50BDF8AE00BDF8D460BDF8D6408B192A1A791A201A00B200901BB212B209B230A800F0FBFFBDF8AE10BDF8AC0073182A1A791A241A24B200941BB212B209B20F
:403D400032A800F0EBFF0DF1AA012BA801F0C0F82BA801F0B3F800287FF4CDAD1F9A13461E994B4013F0010F14D01C9BB3F90630BDF9CA209B1AC3EB0323169AB3FBF2F396
:403D800013F0800F03D01F9B03F0010202E01E9B03F00102634B1C68119B039932A8A047BDF9CA30BDF9C220934221D01F990B461E98434013F0010F01D10A4612E01C9BF4
:403DC000B3F906309B1AC3EB0323169AB3FBF2F313F0800F03D01F9B03F0010202E01E9B03F001024F4B1C68119B039930A8A0471F9A13461E994B4013F0010F14D01C9B48
:403E0000B3F90630BDF9BA209B1AC3EB0323169AB3FBF2F313F0800F03D01F9B03F0010202E01E9B03F001023E4B1C68119B03992EA8A047BDF9B220BDF9BA309A4221D097
:403E40001F990B461E98434013F0010F01D10A4612E01C9BB3F906309B1AC3EB0323169AB3FBF2F313F0800F03D01F9B03F0010202E01E9B03F001022A4B1C68119B03998D
:403E80002CA8A0471C9DB5F900301D9E33440233ADF8C830B5F904309B1B023BADF8CC30B5F90230ADF8CA30ADF8CE301D4B1C68DDF844904B46289FBA78DDF80C8041460D
:403EC00032A8A047B5F90630ADF8CA30ADF8CE304B46FA78414632A8A047BDF9AE30BDF84C90C9EB03031BB204931496129B1793F31AC3EB0323169A1592B3FBF2F35BB274
:403F0000002B03DA1E9A02F0010202E01F9A02F001028DF8A520002B06DA1F9B03F0010305E000BF507D00001E9B03F001038DF8A4304FF0000845469DF8A6809DF8A7B043
:403F4000B2E0119C224629460498FEF74FFA201AC6B28C4B1F68BDF8D0300593ACB2BDF8D2200692BDF848A002EB0A01013109EB0300204400969DF8A430039A09B200B22C
:403F8000B847BDF8D8200792BDF8DA10089151440131C9EB0200001B00969DF8A430039A09B200B2B847BDF8DC300993BDF8DE200A92CAEB02010139C9EB0300001B0096DE
:403FC0009DF8A530039A09B200B2B847BDF8D41008460B91BDF8D6101091CAEB010101394844204400969DF8A530039A09B200B2B847149B139A9B1A1D44C5EB0525159BA9
:40400000B5FBF3F56DB2002D03DA0E9B03F0010302E00C9B03F0010363F30008069B4B4419462144059B53441846013000964346039A09B200B2B847089B4B441946214469
:40404000079BCAEB0300013800964346039A09B200B2B847002D03DA0C9B03F0010302E00E9B03F0010363F3000B0A9BC9EB0301091B099BCAEB0300013800965B46039D0D
:404080002A4609B200B2B847109BC9EB0301091B0B9B9A440AF1010000965B462A4609B200B2B847013425B2049B9D42FFF649AF179B139A9B1A002BB8BF5B42049A9342CD
:4040C0005DD1129BC3EB0323169AB3FBF2F35BB2002B03DA1E9A02F0010202E01F9A02F001024FF0000562F30005002B03DA1F9B03F0010302E01E9B03F001034FF000074D
:4041000063F30007119B4FEA53081E4B1E68BDF9D000BDF84840BDF9D21021442044CDF800803B46DDF80C904A4609B200B2B047BDF9D800BDF9DA102144001BCDF80080B1
:404140003B464A4609B200B2B047BDF9DC00BDF9DE10091B001BCDF800802B464A4609B200B2B047BDF9D400BDF9D610091B2044CDF800802B464A4609B200B2B04739B06A
:40418000BDE8F08F547D0000F8B5B0F90640B0F90250641B013424B2002C36DDB0F90440B0F90050641B013424B2002C2DDD1D4614460F460646937E13F0010F0ED1937997
:4041C0000F2B0BD92B46FEF717FBB4F904302BB12B46224639463046FFF7F6FAB4F90A309BB1237B8BB1637B0F2B0ED92B46224639463046FEF7A0FBB4F904302BB12B4620
:40420000224639463046FEF7D3FDF8BD2DE9F04F85B0039117469A469DF83890B0F90430B0F90080C8EB030808F101080FFA88F800F0DEFCC368FBB18346B7F9006016E030
:40424000B7F902404D460BE0DBF80C9001958DF800A02346324641460398C847013424B2B7F906309C42EFDDA946013636B2B7F904309E42E4DD61E0B7F90200039B08FBD0
:404280000031B9F1FF0F27D1B7F9003003E001F803A001331BB2B7F904209342F7DDB7F9005001EB0509551B01352DB246468844B7F90240013424B209E0B7F900002A4663
:4042C0004946404402F090FFB044013424B2B7F906309C42F1DD31E04FF000054FFA89F9B9F1000F02DA0AF0010E23E04FF0000E20E0B7F9003016E0CE18CA5C6A4012F0FD
:40430000010F0CD0CA5C1546B9F1000F02DA0AF0010201E002F0010262F30004A64686F800E001331BB2B7F904209342E4DD4144013000B2B7F906309842DADD05B0BDE861
:40434000F08F00BFF8B5FF2B13D102F04DFFF8BD071911F804E0055D13F0800F02D00EF0010501E005F0010565F300063E70013400E000249442EBD3F8BD00BF2DE9F04704
:4043800082B09DF828600F2E52D9FB2E00D9FF261F46144688460546FDF7F2FF814630B9254B4A222549022000F060FF40E0B4F90030AB423CDCB4F904309D4238DCB4F974
:4043C0000230434534DCB4F90630984530DCB0F904A00288C2EB0A0A0AF1010A0FFA8AFAAA1A14B2B0F90210C1EB08010FFA81F800F0FEFBC5684DB1D9F8080001968DF877
:404400000070434622465146A84711E0D9F8082008FB0A44FF2E01D1175509E0135D16F0800F02D007F0010701E003F00107175502B0BDE8F08700BF007C0000747D0000EE
:404440000F2B41D92DE9F04186B005460E4617461C46FB2B00D9FF24FDF792FF804630B91A4B7D221A49022000F000FF29E03246294604A800F068FC18B3BDF91030B8F9DD
:4044800000209B1AADF80830BDF91230B8F902209B1AADF80A30BDF91430B8F900209B1AADF80C30BDF91630B8F902209B1AADF80E30D8F8081000943B4602AA4046FFF7FE
:4044C000A5FE06B0BDE8F081704700BF007C0000747D00002DE9F04F9FB086460D4614461F469DF8A0308DF810309DF8A4B000238DF87430FF238DF87530AD4B18681C9019
:4045000018AE53F8040F59689A68DB680FC6BBF10F0F40F28B81BBF1FB0F01D94FF0FF0B34B9A44BF822A449022000F09FFE7DE1BEF900300693BEF90230099339462046C1
:4045400000F026FD804694F820603946204600F031FD03903946204600F0DCFC60B13946204600F0FFFCC8EB000000EBD070069B03EB600003B20693039B013B072B00F219
:404580005581DFE813F00800170053010D005301530153011200802308931DAB0B930DE0F023089318AB0B9308E0FF23089300230B9303E0C02308931CAB0B93394620461C
:4045C00000F0C0FC0290002800F03081069A174602EB0804B5F900309C42C0F22781B5F904309A4200F32281099A06EB0209B5F902309945C0F21A81B5F906309A4200F3F7
:404600001581FDF7BDFE0E9038B96C4B40F229126949022000F02AFE08E10E99B1F90430B1F900001B1A01331BB20F93D1F808E0039B9A4603FB08F3C3F3C70213F0070FE6
:4046400001D00132D2B2B5F900300699994203DA5B1A1BB2129301E000231293B5F904309C4203DC0FFA88F3984604E006995B1A01331BB29846B5F90230099C9C4203DAD5
:404680001B1B1BB20C9301E000230C93B5F90630994502DC33B2139304E009995B1A5E1C33B213930E9BB3F902300999CB1A0F9C1494254604FB03731B1A129815900C9C1D
:4046C00004FB05073B440EEB03071692039B00FB03F317934FEAE30902FB0492029B1344994600F085FA0D90CDF828B099E0344D179B1D4003D5013D65F007050135EDB2C3
:40470000089B43FA05F6F6B2129C0023079378E099F8003006EA03020295C5F10803CAEB030342FA03F313F0FF0153D00A9AFF2A06D1039A082A14D0DBB20B9AD15C10E06C
:40474000039A082A05D10A9B01FB03F1C1F3072107E0DBB20B9AD15C0A9B01FB03F1C1F307210D9BD3F80CB0BBF1000F18D00E9A9068B2F900E0B2F902C00C9B099A134461
:40478000CCEB0303069AA218CEEB020201919DF810108DF800101BB212B20F99D84719E03B7811F0800F0DD0049B03F001030BE0607D0000987D0000747D0000007C0000F8
:4047C0000700008003F00103109A63F300028DF840203A700137CAF10803029A9A4206DA039B1D44EDB246FA0AF6F6B207E0079B0133DBB2079309F10109089E00250134E6
:4048000024B2444584DB169B079A9B1A9944159BC3EB0803149AD31A1F440C9B01331BB20C930C9B139A9342FFF661AF1FB0BDE8F08F00BF2DE9F04F9BB0154602939DF823
:4048400090A09DF894909DF898208DF858209DF89C2004920F2B40F28B8104460F46FB2B01D9FF230293FDF78BFD069038B9B44B4FF4C872B349022000F0F8FC78E13A46F6
:40488000214618A800F060FA002800F07181B9F1000F02D04FF0020801E04FF00108B4F90430B4F900105B1A01331BB218461493B4F90220BDF962309A4204DA9A1A00FBE7
:4048C00002F202FB0855BDF96020914202DA511A01FB0855069CB4F90070D71BBFB238B2ADF86000B4F902209B1A1AB2ADF86220BDF96430B4F900105B1A9BB2ADF8643037
:40490000BDF96610B4F90240091BADF86610069CB4F90410B4F90040091B013109B20791069CA168079C159404FB02028A180E92DF1B01373FB200F05BF90590BAF1000F32
:4049400050D1B9F1000F4DD1029BFF2B4AD1049B002B47D1C3687BB3BDF96290CDF80C90DDF818908246DDF808B01FE008FB04F3EB5CDAF80C60D9F80800BDF96020A4B264
:404980002244CDF804B08DF80030039B12B20799B047013424B200E00024BC42E6DB149B08FB0355039B01331BB20393BDF96630039A9A42F0DDDBE0BDF962400E9E0CE020
:4049C000029B3A4629463046FFF7BCFC149B08FB0355159B1E44013424B2BDF966309C42EEDDC5E04FF000038DF820309DF910300F93002B03DA169B03F0010300E0002304
:404A00008DF82830BDF962300393ACE0214608FB04F3EA18B9F1000F0ED0EB5C63F300065378002B00F08880FF2B08D0029A03FB02F3C3F3072303E0EE5C029B00E0029BEC
:404A4000BAF1000F04D086F0010212F0010F73D0049A002A47D0089A724012F0010F11D08DF820600F9A002A03DA169A02F0010201E006F001020C9862F300008DF83000D2
:404A80008DF82800059AD2F80CB0BBF1000F0ED0069A9068BDF96020224401939DF828308DF80030039B12B20799D84744E0FF2B06D10E9A535C0A9860F3000353543BE0CA
:404AC0000E9A5018525C13F0800F03D00A9B03F0010301E002F00103129A63F300028DF84820027028E0059AD2F80CB0BBF1000F0CD0069A9068BDF96020224401938DF8AC
:404B00000060039B12B20799D84715E0FF2B02D10E9B5E5410E00E9A5018525C13F0800F02D006F0010301E002F00103109A63F300028DF840200270013424B205E000BFBC
:404B4000007C0000747D00000024BC42FFF65EAF149B08FB03550E9B159A13440E93039B01331BB20393BDF96630039A9A42EBDD1BB0BDE8F08F00BF704700BF002343609E
:404B800083600360C360704738B50546142000F0DFFB30B9124B52221249032000F066FBFEE70446C8B128686968AA68EB6820606160A260E360002323610B4B1B684BB99E
:404BC000094B1C60094B1C60FBF788FFFBF7FAFF204638BD1C61204638BD002038BD00BF3C7B0000308200007C0D0020108AFF1F014B1868704700BF108AFF1F2DE9F0439D
:404C000083B0154C246824B31F4690460E4605462368C3B1114C124BA2222146002000F025FB0D4B1B68D3F800900A9B00933B46424631462846C8470A4BA4222146002082
:404C400000F014FB05E0084BA7220449022000F00DFB03B0BDE8F083108AFF1F3082000050820000648200007882000010B9024B18687047406C7047600D002070B5002361
:404C80000B604B608B600B724368ABB105460C4683684B600D4E0E4B7B223146002000F0E5FA6B682046984704460A4B7D223146002000F0DBFA06E0074B7F22034902208C
:404CC00000F0D4FA0024204670BD00BFAC82000098820000CC820000E0820000034B00221A705A6810445860704700BF148AFF1F044B01221A7058681B7813F0FF0FF7D067
:404D0000704700BF148AFF1F10B50446FFF7F0FFA04201D3001B10BD001B10BD018042808380BDF90030C380704700BFB0F90430B0F900209A1AB0F90630B0F90200181ACC
:404D4000013002FB0000704770B4B2F90040B1F900309C42B8BF1C460480B2F90250B1F902309D42B8BF1D464580B2F90460B1F90430B342A8BF33468380B2F90660B1F953
:404D80000620B242A8BF3246C2809C4203DC954203DC012002E0002000E0002070BC704710B4B2F90040B1F90030A342A8BF23460380B2F90240B1F90230A342A8BF234600
:404DC0004380B2F90440B1F90430A342B8BF23468380B2F90620B1F906309342B8BF1346C38010BC704700BFB1F90030B0F9002093420FDBB0F9042093420DDCB1F90230B7
:404E0000B0F90220934209DBB0F90620934207DD0020704700207047002070470020704701207047B0F90020B1F904309A4213DCB0F90420B1F900309A420FDBB0F9022088
:404E4000B1F906309A420BDCB0F90620B1F902309A4207DA0020704700207047002070470020704701207047B0F90020B1F900309A4213DBB0F90220B1F902309A420FDB19
:404E8000B0F90420B1F904309A420BDCB0F90620B1F906309A4207DD0020704700207047002070470020704701207047028000234380C2F101020A80704700BFB0F90220F8
:404EC000B0F900008242CCBF00200120704700BF10B4B0F9023001339BB21AB24280B1F90040002C04DC04EB430301330B800AE0B0F90030013B1BB20380D31A0A8802EBB0
:404F0000430301330B8010BC704700BF08B5FFF733FE08BD38B504460D460CE0A369294620469847002805DB236A13F47F2F06D0012038BDE469002CF0D1002038BD0020A6
:404F400038BD00BF38B504460D4605E0636929462046984720B9E469002CF7D1002038BD38BD00BF38B504460D460DE0A369294620469847002806DB236AC3F3073303B13A
:404F800018B2C0B238BDE469002CEFD1002038BD38B504460D4608E0A369294620469847002801DBC0B238BDE469002CF4D1002038BD00BF0BE003688B4207D8436899423B
:404FC00004D890F8210000F00F007047C0690028F1D1704703688B420AD84268914209D8C91A8368C26852F8210003EB10207047002070470020704703688B4207D842688D
:40500000914207D8C91AC36813F8210070474FF0FF3070474FF0FF30704700BF82B0019259B10A46019B23B1036804330198C85003E0036804330021D15002B0704700BFF3
:4050400082B0019241B10B461AB102680198885002E002680021995002B0704700234360836011F0030F02D021F0030104310160704700BF38B504460068083000F068F9EC
:40508000054698B1002201462046FFF7D9FF626829462046FFF7C2FF616819B12A462046FFF7CEFF6560A36803B9A560284638BD38B505460068083000F04AF9B8B104468B
:4050C000B8B1002201462846FFF7A8FFAA6821462846FFF7B5FFA96819B122462846FFF79DFFAC606B682BB96C60204638BD002038BD38BD204638BD08B140687047002078
:40510000704700BF08B1806870470020704700BF82B00023019318B103680433C8580190019802B0704700BF82B00023019310B10368C8580190019802B0704768B3F8B5B5
:40514000044661B30D46FFF7D7FF854204D12046FFF790FF28BBF8BD2068083000F0F8F80646F8B129462046FFF7DEFF0746324601462046FFF752FF3A4631462046FFF74A
:405180005FFF324629462046FFF75AFF2A4631462046FFF743FF3046F8BD002070470020F8BDF8BD0020F8BD70B504460D46FFF7A3FF85420ED129462046FFF7A9FF6060DC
:4051C00010B90023A36070BD002201462046FFF737FF70BD2046FFF795FF85420ED129462046FFF7A1FFA06010B90023636070BD002201462046FFF711FF70BD29462046B7
:40520000FFF792FF064629462046FFF781FF0546024631462046FFF701FF324629462046FFF70EFF70BD00BF38B50C4615461146FFF7BAFF002229462046FFF701FF626857
:4052400029462046FFF7EAFE616819B12A462046FFF7F6FE6560A36803B9A56038BD00BF014B1860704700BF1C8AFF1F032807DC002805DD10B5034C246804B1A04710BDC4
:40528000704700BF1C8AFF1F10B9084B18687047031D006803EB5000021D044B1B6803F500439A4200D30020704700BF208AFF1F11F0030F02D021F0030104310368C3F312
:4052C0005E030A1D934200D11946994213D010B4021D535C6FF3000353540368C1EB5303043B545863F35F045450036861F35F03036010BC7047036861F35F0303607047CE
:40530000037813F0010F0FD10368C3F35E038B420CD310B50446FFF7CBFF237843F00103204600F8043B10BD0020704700207047064B1A1D1A601A796FF300021A715A68D2
:4053400047F6FC7161F35F025A607047208AFF1FF0B170B5064610F0030F02D020F003060436002425462046FFF78EFF044618B13146FFF7C5FF05460CB1002DF3D04DB992
:40538000054BA12205490220FFF770FF284670BD03487047284670BDFC82000018830000240A0020124B984221D000B310B5044610F8043C6FF3000300F8043C0438FFF765
:4053C00063FF11E0037813F0010F0FD1016854F8043CC3F35E0202EB5102043262F35F0344F8043CFFF750FF0028EBD110BD7047240A002038B1064A904206D050F8040C04
:40540000C0F35E007047002070470020704700BF240A0020F8B50D46044628B110F8043C13F0010F00D100242046FFF7E3FF0746A84220D005D92946201FFFF739FF2046F1
:40544000F8BD2846FFF784FF064658B154B14FB13A46AF4228BF2A46214601F0C5FE2046FFF7A0FF4EB9064BFF2206490220FFF7FDFE3046F8BD2046F8BD3046F8BD00BF4D
:40548000FC820000188300002DE9F8438046894615461F462C48FFF72FFE044668B92A48FFF7E8FD064630B9284BAD2228490320FFF7DCFEFEE750BB3DE0237C03F007035A
:4054C000AB420EDC21462048FFF738FE064630B91E4BB3221E490320FFF7C8FEFEE740B92CE021461848FFF713FE04460028E4D1002664B91448FFF7DBFD064630B9134B42
:40550000BC2213490320FFF7B1FEFEE7C8B1C6F80090C6F80880337C65F30203F7606FF3C3033374FFF7E4FB70600122094B1A703046BDE8F8830020BDE8F8830020BDE804
:40554000F8830020BDE8F883280D00203C7B000034830000280A002010B5044601460748FFF722FE2046FFF71DFF054B1B689C4202D10122034B5A7010BD00BF280D002088
:40558000580D0020280A002038B504464068FFF7BBFB2368984214D3FFF7AAFB60600C4D00236B702B70A368E06898476B7853B9237C13F0080F08D02046FFF7CDFF0120F5
:4055C00038BD002038BD012038BD012038BD00BF280A002038B5474B412247490020FFF745FE464B9B78002B40F08280434B01229A70DB78002B7BD0FFF77AFB3F4B586067
:4056000000243E4B00225A701A703D48FFF774FD3C4B186033E03A48FFF77AFD0546394B1868037C13F007032FD0844203D1354B1D60002423E0052B02D1FFF7A5FF16E02F
:4056400074B1027C02F00702237C03F007039A420DDDFFF799FF50B12A4B1C68002319E0FFF792FF18B1274B1C68002312E0234B5B7863B9214B1B785BB9224B1D60214B65
:4056800019680029C7D1012304E0012302E0012300E00123002BB4D0184C6068FFF734FBA3681844A060E068FFF72EFBB0F5FA7F16D3A268642303FB02F3134AA2FB0323F9
:4056C000C3F34713642B03D8C3F16403DBB200E000230A4C23740023A360FFF709FBE0600020064B9870094B99220349FFF7BEFD38BD00BF5083000034830000280A002023
:40570000280D0020580D0020D34D62106883000010B50446FFF7ECFA2368C01A0138606010BD00BF014BD870704700BF280A002008B514210348FFF791FC0120FFF7F2FF19
:4057400008BD00BF280D0020037813F0800F0DD003F0E002C02A0BD003F0F002E02A09D003F0F803F02B07D104207047012070470220704703207047002070477F284BD91B
:4057800082B0B0F5006F11D2C0F3841363F03F038DF8043000F03F0060F07F008DF8050000238DF806308DF8073033E0B0F5803F15D2C0F3033363F01F038DF80430C0F3DE
:4057C000851363F07F038DF8053000F03F0060F07F008DF8060000238DF807301AE0B0F5881F17D2C0F3824363F00F038DF80430C0F3053363F07F038DF80530C0F3851390
:4058000063F07F038DF8063000F03F0060F07F008DF80700019802B0704700BF84B010F0800F14D0C0F307231B0403EB0063C0F3074203EB022303EB1060002305E010F024
:40584000FF0F00D1000A0133DBB2032BF7D904B0704700BF30B482B0002301930C4601B901AC2268835C13F0800F03D10132226018466AE003F0E001C0290FD19B0103F474
:40588000F86301322260805C00F0C001802951D100F03F0001322260184456E003F0F001E02919D11B039BB201322260815C01F0C005802D40D1890101F47C610B44511CAA
:4058C0002160425C02F0C000802837D102F03F0201312160D01838E003F0F801F02925D19B0403F4E01301322260815C01F0C005802D25D1090301F47C310B44511C2160E7
:40590000425C02F0C005802D1CD1920102F47C621A4401312160435C03F0C000802813D103F03F030131216098180EE00132226000200AE0002008E0002006E0002004E0CB
:40594000002002E0002000E0002002B030BC704770B582B006460D460B68013B0B600024032C17D80D4B1B68286830449847034618B9286878B1013828600134E4B2002B16
:40598000EED02B6802A941F8043D044B5B683046984700E0002002B070BD00BF0081FF1FF8B507460E460024254605E0044B1B683819984704440135B542F7D32046F8BDAF
:4059C0000081FF1F70B582B006460D460024019405E0064B5B6801A9304698470134019BAB42F6D3204602B070BD00BF0081FF1F30B583B005460024019405E0064B5B6822
:405A000001A9284698470134019BEB5C002BF5D1204603B030BD00BF0081FF1F002303E0824207D00133DBB2034AD25C002AF7D100207047012070478083000002462329ED
:405A400011D103781BB90123037018460EE0012B03D100230370184608E0022B05D100230370012002E0002000E000201378012B06D1202903D1022313700120704701202E
:405A8000704700BF2DE9F04F8BB00291039201939DF85080002800F0FA800746002900F0F88018F0020F02D043F6FF730193002409948DF823404FF0FF330493A2460594F3
:405AC000DEE0764B5B6809A938469847064618F0010B07D001460DF12300FFF7AFFF002840F0CE800A2E01D00D2E10D10AA9099B41F80C3D694B5B68384698470D2E03D18B
:405B00000A2801D1079B0993BDF82400C2E00AF10103009331460298FFF724FA0FFA80F92518ADB22CB2019BA34280F28D80049AB2F1FF3F79D0009B032B01D8099279E097
:405B4000099B0793BDF80C60059B3344EC1A24B2009D4BE0514B5B6807A9384698478046BBF1000F06D001460DF12300FFF766FF00283BD1B8F10A0F06D0B8F10D0F03D021
:405B80004046FFF74BFFC8B100950B2D12D9434B9B6809A938469847009BCAEB030405E03E4B9B6809A9384698470134002CF7D0002321E0049B099300231DE00135414613
:405BC0000298FFF7CFF903B2204480B204B2019AA24207DA0095314B9B6809A938469847002309E0002B01DD304404B2079BFB5C002BAFD100950123E3B1009B0B2B11D9DE
:405C0000264B9B6809A938469847009BCAEB030405E0224B9B6809A9384698470134002CF7D007E0049B099304E01C4B9B6809A938469847099B23B9184B5B6809A93846A9
:405C40009847BDF8240025E03046FFF7E7FE58B1099B0493B9F1000F09DD039BEB181BB205934FF0000A05E0DDF800A002E005944FF0000AB9F1000F02DD039B1D442CB251
:405C800009983B5C002B7FF41CAF80B202E0002000E000200BB0BDE8F08F00BF0081FF1F2DE9F04782B09DF8289098B380469AB3002001908DF80300F9B930E0194B5B6886
:405CC00001A940469847054619F0010F05D001460DF10300FFF7B2FE98B929463046FFF741F900B200280CDD29463046FFF73AF9204484B2544424B203E09A4616460F46BB
:405D00000024019B9F42D9D8002C07DDCAEB040420B204E0002002E0002000E0204602B0BDE8F0870081FF1F2DE9F04F85B0BDF938A0BDF93C4003949DF8409000240480CB
:405D40004480002945D00F46002A42D019F0020F02D043F6FF71039102939046044692F820B000251BE0CDF80090039B029A41463046FFF787FE0146054463885B449BB2CA
:405D800053446380CDF80090029B42463046FFF787FFB4F900309842B8BF184620807E197B5D002BDFD155B1013D7B5D0A2B01D00D2B04D10BEB0A03628813446380B4F984
:405DC000023013B9A4F802B003E0CAEB030AA4F802A005B0BDE8F08F38B5FBF7ADFD0379032B18D10446418A4FF6FF73994212D0094B1B68033900689847002304E0256808
:405E000019186A540133DBB2E2185279002AF6D14FF6FF73638238BD0C81FF1F022A00F08280002A40F081802DE9F04788B00E460446FAF7ABFE80462046FBF7D7FC8146D2
:405E400004A92046FAF774FE2046FBF775FD0546837E13F0200F24D006A92046FAF768FEB8F81610BDF81820521AADF81820BDF81C300B44ADF81C30B8F81410BDF81A20F4
:405E8000521AADF81A20BDF81E300B44ADF81E302046FBF7ABFC03464246314606A8FEF773F9AB7E13F0080F01D1002700E0012713F0100F01D047F0020703F00603022B5C
:405EC00001D147F00407042B01D147F008072A79042A1BD1022B01D0042B17D12968B8F92430D8F82020029743F6FF700190B8F92600009006A8FFF717FFBDF918A0204608
:405F0000FAF734FE824501DD07F0F30755F8163B0295019700934B464246314604A8FCF79FFA012003E0002070470120704708B0BDE8F08738B505460C46FBF7FDFC837E83
:405F4000C3F34103A34206D0837E64F3420383762846FAF737FE38BD38B505460C46FBF7EBFC837EC3F34013A3420DD00CB9002200E00122837E62F3451383762846FBF72D
:405F800011FC2846FAF71EFE38BD00BF08B5FBF7D3FC006808BD00BF08B5FBF7CDFC007908BD00BF08B5FBF7C7FC807EC0F3410008BD00BF08B5FBF7BFFC807EC0F3C00003
:405FC00008BD00BF08B5FBF7B7FC807EC0F3401008BD00BF2DE9F04F89B0044605908B46FFF7D4FF06462046FBF7A6FC054604902046FAF7BBFD03902046FAF7C7FD804687
:40600000036A029393F820A0AB7E13F0080F02D14FF0000901E04FF0010913F0100F01D049F0020903F00603022B01D149F00409049B1B7913B1022B07D103E043F6FF7389
:40604000039302E043F6FF7303930024254615E0B8F92420CDF80090039B02993846FFF711FD2844BBF9022004EB0A039A420CDDB8F9263053441C4424B205467719735D5C
:40608000002BE5D13C462F4601E03C460746049B9B7E03F00603022B18D1791BB8F92430CDF80090029A89B22046FFF7F9FD04460598FAF75BFD00EBD07040F34F0204EBA9
:4060C000D47444F34F03D31A1CB200E0002400238DF81F30069521E0174B1B6806A930469847824619F0010F06D0069BF15C0DF11F00FFF7A3FC88B951460298FEF732FFA5
:40610000204484B222B2BBF900309A4201DD069508E0B8F92400044424B2069D7B1E069A9342D9D8054B1B6806993046984780B209B0BDE8F08F00BF0481FF1F1481FF1F90
:406140002DE9F04788B00546FBF7F6FB0368002B00F0BA8004462846FAF708FD07462846FAF714FD0646026A237913B1022B05D102E043F6FF7701E043F6FF77A37E13F0E1
:40618000080F01D1002000E0012013F0100F01D040F002002168B6F9243002900197B6F92600009007A8FFF7BFFD23790BB1022B07D1BDF91E20BDF91C102846FBF710FA97
:4061C0007FE0042B7DD0032B74D1BDF91E702846FAF7D4FC874203DC4FF6FF73638270E03B4B1B6820689847032803D84FF6FF73638266E02846FAF7B9FC07462E21306AA8
:40620000FEF7B0FEB6F924301844A0EB80003844ADF814002846FAF7B1FC336A93F82020B6F926100A4490FBF2F302FB1303C31A9BB25B1AADF8163005A92846FFF7CAFE8E
:406240008046244B1B68014620689847074606900026B24611E020680DF1200959F8082D1D4B1B68104498473044C6B21B4B1B684946206898470AF1010ABAF1030FEAD922
:40628000216832463944601D00F0AEFF26440023737104E02168DA192E2088540133022BF8D9236803370022DA5508F10308A4F8128006E0012B04D1BDF91E102846FBF7A6
:4062C000C9F92846FAF77EFC08B0BDE8F08700BF1081FF1F0C81FF1F0081FF1F0481FF1F2DE9F04106460D4617463A4B1B689847044601286AD13046FBF71EFB804655B9A7
:40630000837E13F0010F61D10068FFF74BF80023C8F800305AE0032D06D13046FFF75CFD3046FFF70DFF51E0022D26D1B6F91430B6F910209B1A01331BB2B7F90420B7F982
:406340000010521A013212B29A420FD1B6F91630B6F912209B1A01331BB2B7F90620B7F90210521A013212B29A422FD03046FFF733FD3046FFF7E4FE28E0042D15D1837E82
:4063800013F0200F22D03046FAF700FCB0F91620B6F930309342B8BF13463386B0F914209342B8BF1346338610E0052D0ED0062D0CD105E057F823202AB10133DBB200E0CC
:4063C0000023062BF6D9044A47F823202046BDE8F08100BF3C0A0020888300002DE9F04107460E46FAF7EEFB3846FBF7A5FA26B93846FFF7A5FEBDE8F08104460568AE427A
:4064000012D1284600F00BFF411C2846FFF702F8206030B9184BA22218490320FEF726FFFEE720BBBDE8F081304600F0F8FE00F1010845B1A37E13F0010F04D12846FEF79A
:40644000B1FF002323604046FEF782FF206030B9094BAD2209490320FEF708FFFEE748B1314600F0D4FEA37E6FF30003A3763846FFF766FEBDE8F0813C7B0000948300005B
:4064800070B506460D46FBF757FA0446837E13F0010F05D1006818B1FEF784FF0023236025B1A37E43F00103A37625603046FFF747FE70BD70B506460D46FBF73DFA044671
:4064C0000023C38203832B1FDBB2012B04D8837E43F01003837603E0837E6FF3041383762379032B07D1628A4FF6FF739A4202D03046FFF771FC25713046FFF721FE70BD1F
:4065000038B505460C46FBF717FA837EC3F3C003A3420AD00CB9002200E00122837E62F3C30383762846FFF70BFE38BD2DE9F04104460E46684B442268490020FEF796FEDC
:4065400031462046FAF7F4FE30B9654B482263490320FEF78BFEFEE70446002800F0B280604B1B681BB9FBF7E5F95E4B18601C212046FAF7ABFA2046FBF7DEF9054630B903
:40658000574B512255490320FEF770FEFEE7002800F09B8000230360827E02F0D60263F3420282764FF6FF724282037119228282C38203834C492046FAF786FA4B4920464A
:4065C000FAF780FA86B900212046FAF773FA00212046FFF76FFF46492046FFF7FFFE00212046FBF771F864E03046FBF7A5F907463046FFF7D1FC01462046FFF75BFF304614
:40660000FFF7D8FC01462046FFF77AFF3046FFF7D9FC01462046FFF79FFC3046FFF7C2FC01462046FFF786FCBB7E13F0010F07D13046FFF7ABFC01462046FFF7CFFE06E019
:406640003046FFF7A3FC01462046FFF719FF3B79032B1CD12E683868FEF7CCFE01463046FEF7D8FE0646286030B91D4B78221B490320FEF7FBFDFEE750B3D7F80080404618
:40668000FEF7B8FE02464146304600F0ADFD3B4653F8056F58689968C5F80560C5F80900C5F80D101B7B6B747B8A6B822046FAF7DDFF104B852209490120FEF7D7FD20464F
:4066C000BDE8F0810020BDE8F0810020BDE8F0810020BDE8F08100BFB0830000948300003C7B00003C0A00201D5E0000E1620000C8830000D0830000014B1868704700BF1E
:40670000400A0020FEE700BFF0B40022174611E050F82760F3B226F0FF0608E001EB420511F812406D78A5550132013BDBB2002BF4D10137102FEBD9F0BC7047064B1B78E5
:40674000DBB203F00701054A11701B09013213704422034B1A707047CF0100496E5800407658004008B50A46002100F048FD08BD38B50024234B1C801B2202331A70022262
:4067800003F27E231A7008224FF040231A70032103F5007319701C4B1B78DBB21B490B701B4B1A8041F25122023B1A8019250CE0184B1B7803F0010343EA440404F00304E1
:4067C0004FF4F07000F0C0FC013D0DB1032CEFD115B90320FFF796FF0F4B4FF480721A8007221A7000220D490A704820023108701A700222033B1A70094A137843F0010377
:40680000137038BD8040004008010049A146004022420040254200400440004006400040A243004008B500F0DFFC08BD38B572B62B4A137843F00403137000240CE0294D48
:40684000630019194A0011462A44084691882858FFF788FF0134E4B2092CF0D922494FF09040FFF751FF214A137843F0020313701032137843F0020313701D4C237843F017
:4068800040032370A2F58632513A137843F0100313700A2217491848FFF7C4FF082217491748FFF7BFFF082216491748FFF7BAFF164A137843F008031370154D61232B70CE
:4068C000FFF756FF81232B700122124B1A70FFF735FF0E2221461048FFF7A4FF38BD00BFE8460040E08300004400004803500140A0430040B8000048C0510040C40000482D
:4069000012510040CC00004822510040224300400048004004000840B043004008B500F037FC03680C2B00D1FEE7FEE708B5094B1A681044084BC31A802B02DC054B1860BC
:4069400005E000F025FC0C2303604FF0FF32104608BD00BF2081FF1F980D002008B5104E104D16E029686B68AC68002204E051F8040B43F8040B0432A242F8D1E8680022DE
:4069800003E0002143F8041B04328242F9D11035013E002EE6D100F001FCF9F7CBFBFEE7010000007884000008B5104A104B1A60104A136843F40073136000230AE0032BAE
:4069C00003D80D4A52F8231000E00C490C4A42F8231001332F2BF2D90A4B1A780A4B1A70074A0A4B1A60FFF721FF08BD0004FA050CED00E014ED00E0000000001D69000093
:406A00000080FF1FBC760040C080FF1F08ED00E038B50622114B1A7081220E3B1A70082202331A700F2511331D70002401331C704FF400420A4B1A600721284600F07AFA82
:406A40000849284600F062FA1022074B1A70074B1C70074B1C70074B1C7038BDD649004080E100E0C56A0000800D0020860D00208E0D0020840D002008B500F06DFB064A6E
:406A8000137843F0040313701032137843F00403137000F065FB08BDA543004008B5074B1B7823B9FFF7B4FF0122044B1A70FFF7E3FF4FF40042024B1A6008BD440A00204D
:406AC00000E100E038B5A54B1C78A54B1B7813F0400F00F03A81E4B214F0010F00F01D819F4B1B78453B052B00F21481DFE813F006008200120112010600DF0004F0DF05C3
:406B000004F00A04082C42D1954B1B78DBB2452B35D1944B1B7813F0FF0F10D0924B1B681B78DBB2914A137004228C4B1A7001228F4B1A7046228A4B1A702C46EDE08D4B69
:406B40001B7813F0020F0DD08B4A137843F00A0313706022824B1A704FF40042874B1A602C46DAE0864A137843F0100313701022844B1A700422023B1A702C46CDE00022BB
:406B8000764B1A704A22764B1A702C46C5E00A2C2BD1794A137843F0A0031370754B1B7813F0020F14D06E4B1B7813F0080F01D0092300E00A23704A11780B431370602292
:406BC000674B1A704FF400426C4B1A602C46A4E06B4A137843F0100313701022694B1A700422023B1A702C4697E0002000F076F92C4692E014F0020F36D15D4B1A78D2B221
:406C0000584B1B78DBB29A4210D2594A1378DBB255490968CB5CDBB254490B7004214F4B197013780133DBB2137076E0514B1B7813F0020F0CD0504A137843F00A031370C9
:406C40006022474B1A704FF400424C4B1A6064E04B4A137843F0100313701022494B1A700422023B1A7058E0424B1B7813F0020F0CD0414A137843F09A0313706022384BC0
:406C80001A704FF400423D4B1A6046E03C4A137843F01003137010223A4B1A700422023B1A70354A137843F09003137035E0364A1378DBB2354908682C490978C9B2C15421
:406CC00013780133DBB213701278D2B2304B1B78DBB29A4203D21022204B1A701DE0254B1B7813F0020F0CD0234A137843F00903137060221A4B1A704FF400421F4B1A60C0
:406D00000BE01F4A137843F0100313700022134B1A7002E0002000F0E1F814F0200F1CD00F4B1B7813F0080F01D0012300E00223114A11780B431370114A137803F0EF0336
:406D400013701022064B1A7038BD054B1B7813F0100F02D11022024B1A7038BDD7490040800D0020850D0020900D0020D8490040840D00208C0D0020860D002080E100E07D
:406D8000D6490040D94900408E0D0020880D00208D0D0020002948D070B40C4626490978C9B2102906D12549097811F0080F11D1002112E020490978C9B260290CD14FF4AC
:406DC00000451F490D601F4D297801F0F7012970002102E0012100E0022149BB4526164D2E700026184D2E70184D2A70184A1460184A1370134C227802F0FD0222704200B1
:406E0000D2B21548027013F0010F06D012220B4B1A700422023B1A7002E00122074B1A704FF400420D4B1A6002E0022108467047084670BC704700BF800D0020D9490040D4
:406E400080E200E0860D0020840D0020850D0020900D00208C0D0020D849004000E100E04FF40042084B1A60084B1878C0B2084B1B7813F0400F01D040F004004FF40042B9
:406E8000044B1A60704700BF80E100E0860D0020800D002000E100E04FF40043044A1360044A107800211170034A1360704700BF80E100E0860D002000E100E0704700BF11
:406EC00038B505460078012404E000F0E5F8285D0134E4B20028F8D138BD00BF01BE704710B5044605E0084B186800F02DF9A4F50044B4F5004FF6D8034B586800FB04F024
:406F000000F022F910BD00BF3081FF1F70B504460E46074B1D681F2802D90020FFF7DEFF04F01F04103455F8240045F8246070BD08ED00E038B504460D46072902D90020F8
:406F4000FFF7CCFF1F2C02D90020FFF7C7FF04F01F0000F1604000F564406D01EDB2057038BD00BF084A137843F0010313701032137843F00103137002F64D32137843F088
:406F800001031370704700BFA3430040014B1870704700BF034F0040014B1878704700BF034F0040014B1880704700BF044F0040014B1880704700BF064F004008B5154AF6
:406FC000137803F0010313700232137803F0FC031370114B1A7802F0CF021A701A7842F030021A701A7802F0F0021A701A7842F00F021A70094A137843F001031370042082
:40700000FFF7D0FF0420FFF7D3FF0820FFF7BEFF08BD00BF004F00400B4F0040014F004008B5054B1B7823B9FFF7C8FF0122024B1A70FFF797FF08BD450A0020024B1B68C4
:40704000C3F88400704700BF08ED00E04001C0B2014B1870704700BF11E400E04FF40032014B1A60704700BF00E100E04FF40032014B1A60704700BF80E100E010B5044641
:40708000FFF7F4FF2046FFF7D9FF0720FFF7DEFFFFF7E4FF10BD00BFFEB5494652465B460EB40746244909688A46244A12682448022100F059F8030020480068C018204950
:4070C00000F052F8143883460121C9430C460125002600F041F8814651460B7823400B705846013000F030F83800F04028400B78234003430B70584600F026F80136072E17
:40710000F2D9002001300138013001200B78234003430B705846043000F016F8484600F01FF800BF00BF00BF0EBC894692469B46FEBD00BFAFF300802481FF1F3C81FF1FD3
:4071400000C20100000000000230800803D000BF01380046FCD17047EFF3108072B6704780F31088704700BF002902D0B0FBF1F0704708B14FF0FF3000F008B80029F8D025
:407180000246B0FBF1F000FB11217047704700BF014B1868704700BFA081FF1F0E4B70B51E460E4C0025E41AA410A54204D056F8253098470135F8E701F04CF9084B094CDD
:4071C0001E46E41AA4100025A54204D056F8253098470135F8E770BD6084000060840000608400006884000010B5431E0A44914204D011F8014B03F8014FF8E710BD03468D
:407200000244934202D003F8011BFAE77047034611F8012B03F8012B002AF9D17047034613F8012B002AFBD1181A0138704730B5141E05469BB0184604DA8B232B604FF069
