:400000000080002011000000314E0000314E000008B5044B1A6803F53F5302331A6004F027FF00BFFA46004010B5054C237833B9044B13B10448AFF300800123237010BD4F
:400040008881FF1F00000000985F0000084B10B51BB108490848AFF300800848036803B910BD074B002BFBD0BDE81040184700BF000000008C81FF1F985F0000C880FF1F94
:40008000000000002DE9F843DDF82080002A05DB002B03DB7F2801DC3F2903DD01F026FEBDE8F883C5B2D6B2C1F3C409C3F3C4043146284600F0A2F82146484600F0ACF870
:4000C000771BFFB2C9EB04035FFA83F9761B013636B200250DE006FB054318F8030000F0A9F80134E4B200E00024A742F3D80135EDB2A945F8D801F0F9FDBDE8F88300BFA2
:4001000008B5052004F096F805F0D0F908BD00BF08B5024800F034F808BD00BF9C5F000000B585B0104805F033FA62B605F050F904F03EFF00F01EF800F05AFF0B4804F0F6
:400140003BFB00F0B5F805F0F5F9684603F0C2FF074B0093684603F0C3FF04F09DFC052005F048F9F9E700BF01010000110100008500000008B50C2005F01AFA08BD00BF89
:400180000FB4F0B583B008AC54F8047B0C4D4FF4FA7632460021284605F0BDFA019423463A463146284605F0E9FA284605F012F9044805F00FF903B0BDE8F04004B0704781
:4001C000A481FF1FAC5F000010B582B000248DF804408DF8050005F0E9F82346022201A93C2005F061F802E0012005F003F905F0C1F80228F8D102B010BD00BF38B5054681
:400200000C462120FFF7E0FF2846FFF7DDFF2046FFF7DAFF38BD00BF38B505460C462220FFF7D2FF2846FFF7CFFF2046FFF7CCFF38BD00BF00B583B040238DF804308DF804
:40024000050005F0B3F80023022201A93C2005F02BF802E0012005F0CDF805F08BF80228F8D103B05DF804FB98B500AF0A464C1C01F1080323F00703ADEB030D6B464021BD
:4002800003F8011B0146184605F03AFA05F08EF80023E2B269463C2005F006F802E0012005F0A8F805F066F80228F8D1BD4698BD10B5ADF5806D0A2005F09CF8AE20FFF728
:4002C00083FFD520FFF780FF8020FFF77DFFA820FFF77AFF3F20FFF777FFD320FFF774FF0020FFF771FF4020FFF76EFF8D20FFF76BFF1420FFF768FF2020FFF765FF002001
:40030000FFF762FFA120FFF75FFFC820FFF75CFFDA20FFF759FF1220FFF756FF8120FFF753FF0F20FFF750FFD920FFF74DFFF120FFF74AFFDB20FFF747FF4020FFF744FF9B
:40034000A420FFF741FFA620FFF73EFF7F210020FFF754FF07210020FFF75EFFAF20FFF733FF4FF4806422460021684605F0D3F921466846FFF778FF0DF5806D10BD00BFD3
:4003800090F8343013F0020F16D000230362436290F8282002F0FE0263F3410280F8282090F83420C36203638383C38302F0FE0263F3410280F83420704700BF2DE9F04148
:4003C00006468846011D08F1100003F0B9FF40B308F10407384604F03BF9044600250AE021463046FFF7EAFF054630B92146384604F03AF90446002CF2D1ADB9404600F00A
:4004000067FE48B910E0204600F0C4FB38B9204600F064FB044600E04446002CF3D11CB901E0002500E045462846BDE8F08100BF2DE9F04F83B00546446903E0204600F0C5
:400440004DFB0446204600F055FE08B1002CF5D1002C00F08280204600F040FE00287CD0B5F90C202B8A13441BB22B82B5F90E106A8A0A4412B26A82297F11F0010F0DD1BB
:40048000002BB8BF5B42092B04DC002AB8BF5242092A03DD2B7F43F001032B772B7F13F0010F5AD0EB68002B57D0204600F034FB0646204600F03CFB074601F097F90190D5
:4004C000B4F91080B4F91290204600F007FB00F03BFB8346204600F001FB00F03DFB8246B5F90C10B5F90E203A44314412B209B2204600F0A7FBB4F91030984503D1B4F98C
:400500001230994513D02B7F13F0010F0AD0A369134A12680E212046984795F8283013F0020F1AD12B7F43F002032B7715E0204600F0D4FA00F008FB0546204600F0CEFAED
:4005400000F00AFBAB4508D1824506D101F04EF9019BC01A80B201F04FF903B0BDE8F08F9883FF1F70B54669037F13F0040F40F0D58004467EB900F0A5FA01462046FFF752
:400580001DFF0646F0B900F097FA01462046FFF715FF064616E013F0020F13D11021304600F00EFE70B900F08DFA01462046FFF705FF064630B900F07FFA01462046FFF78D
:4005C000FDFE0646606986424CD0B4F904302381B4F90630638150B18369514A12680A21984794F8283013F0020F40F097806661A661002E36D003F027FE206294F82830F0
:400600006FF3000384F82830237F03F0FE036FF341032377002525826582A581E581606907E090F82C3013F0200F00D0054600F055FA0028F5D155B1284600F04FFA04307D
:400640002A46014604F09CF8284600F0A9FA60698369334A12680821984794F8283013F0020F5BD1B4F90430B4F908209B1AA381B4F90630B4F90A209B1AE381606900280F
:400680004CD08369264A12680921984794F8283013F0020F42D12046FFF7CAFE94F8283013F0020F3AD1227F12F0020F1AD113F0010F17D1206A03F0D3FDB0F5C87F11D950
:4006C000B369174A12680C213046984794F8283013F0020F22D143F0010384F8283003F0B3FD6062237F13F0020F17D194F8283013F0010F12D0606A03F0B2FD64280DD9D1
:40070000B369074A12680D213046984794F8283013F0020F02D103F097FD606270BD00BF9883FF1F037F13F0020F7FD070B584B00546846903E0204600F0D0F904462046EE
:4007400000F0D8FC08B1002CF5D1002C6CD0204600F0CAFC50B92B7F6FF341032B77A369334A12680F21204698475DE0B5F90C3003EB83031A012F4981FB0203D217C2EBCE
:400780006312AA81B5F90E2002EB8202130181FB0321DB17C3EB6113EB81EB68002B39D06946204600F0B2F9204600F0B5F9B5F90C60304406B2204600F0BAF9B5F90E20B2
:4007C000024412B23146204600F03CFA02A9204600F09CF9BDF90020BDF908309A4202D0B5F90C3003BBBDF90220BDF90A309A4202D0B5F90E30BBB92B7F6FF341032B7774
:400800000023AB81EB81A369094A12680F212046984709E02B7F6FF341032B77A369044A12680F212046984704B070BD704700BF9883FF1F1F85EB5138B50446037F13F05F
:40084000040F08D000234361836103624362027F63F382020277606948B3102100F0B0FCA0B161692046FFF7A9FD6369834206D19D69144A12680B211846A8470CE09D69A5
:40088000104A12680A211846A84705E0606983690C4A12680B21984794F8283003F0020303F0FF026BB962B9636123626362A3693BB194F8283013F0020F02D12046FFF73B
:4008C00031FF38BD9883FF1F38B504460D46006C48B162690B689A4205D0B1F90220B1F9001000F0AFF9B5F900302382B5F902306382237B012B04D104F10C00FFF732FE90
:4009000003E004F10C00FFF797FFB4F91030A382B4F91230E38238BD10B50446036C0A6833F9222002820A6803EB8203B3F902304382426903699A4206D10B7A012B03D133
:400940000C30FFF70FFE03E004F10C00FFF774FFB4F91030A382B4F91230E38210BD00BF30B585B0264B40F227122649002003F029FF002003F026FC044634E0224B1C60DD
:400980002046FFF7FDFC94F8343013F0040F26D101A9204603F01EFC05462046FFF7F0FC9DF80C302373012B02D103F04DFCE0632378012B04D101A92046FFF785FF09E041
:4009C000022B07D0042B05D0032B03D101A92046FFF7A2FF2046FFF7D3FC002DD8D1204603F0F0FB0446002CC8D10020064B1860064B4FF4A972034903F0E4FE05B030BD97
:400A0000B05F0000C45F00009883FF1FE05F0000014B1868704700BF9883FF1F08B530B190F8343043F0020380F8343008BD002003F0C8FB07E090F8343043F0020380F8D5
:400A4000343003F0BFFB0028F5D108BD08B5002303223221034803F079FF0020FFF7DEFF08BD00BF61090000F8B50E461546071D384603F0EDFD044617E0B2B2238A13443F
:400A80002382ABB2618A19446182A18A0A44A282E28A1344E3822A4631462046FFF7E4FF2146384603F0E0FD0446002CE5D1F8BD81617047C1617047014B1868704700BFD4
:400AC000480B0020014B1868704700BF440B0020014B1868704700BF6C0B00200068704710B5044600E01C462046FFF7F7FF03460028F8D1204610BD08B519B9043003F014
:400B0000A7FD08BD043003F0AFFD08BD50F8102F43680A604B60704710B50446FFF7DEFFB4F91030B0F91000181A00B210BD00BF10B50446FFF7D2FFB4F91230B0F912003E
:400B4000181A00B210BD00BFB0F91430B0F91000181A013000B27047B0F91630B0F91200181A013000B27047416A61B9036806E05A6A1AB1107810F0010F03D01B68002B5F
:400B8000F6D100E0114601B901490846704700BF200A002090F82C00C0F30010704700BF30B583B00546FFF7F5FF002847D12846FFF796FF0446FFF77FFF844207D0FFF761
:400BC00081FF844203D0FFF783FF844237D12846FFF784FF0446B5F930306A4655F8100F696803C29BB2BDF80020D21AADF80020BDF80220D21AADF80220BDF804201A4411
:400C0000ADF80420BDF806201344ADF8063001250FE004F110026946684603F041FB054648B12046FFF7B6FF48B92046FFF756FF0446002CEDD115B1684600F087FD03B060
:400C400030BD00BF2DE9F04383B00668B6F91070394489B2B6F91240224494B2B0F91070CF1BBFB20FFA87F8B0F91220A41AA4B20FFA84F9B8F1000F02D1B9F1000F24D091
:400C80000546FFF78DFF69462846FFF73FFF2B8A3B442B826B8A23446B82AB8A1F44AF82EB8A1C44EC824A4641462846FFF7DCFEAB696A46022128469847B3692A460121A9
:400CC000304698472846FFF76BFF03B0BDE8F083F8B50D460646002853D19E4B87229E4903F070FD9D4803F071FC044630B99C4B8A229949032003F065FDFEE7002800F033
:400D00002281002740F8047B442103F053FC278267827F23A3823F23E382278684F83C7027876787676394F83D3067F3000384F83D3003F06BFF10B10368636201E0894BEE
:400D4000636289492046FFF7B3FE88492046FFF7B1FE00232364A36294F82C2002F0C00263F3861284F82C2084F82D30FF2284F82E2023627E4BC4227749012003F022FD17
:400D800057E07C4BC8227449002003F01BFD301D03F01CFC044630B9714BCB226E49032003F010FDFEE7002800F0CF8040F8046B442103F0FFFBB6F910302382B6F912308B
:400DC0006382B6F910306433A382B6F912304233E3820023238684F83C3023876387636394F83D2063F3000284F83D2003F00EFF10B14368636201E05F4B63625A492046E6
:400E0000FFF756FE59492046FFF754FE00222264A26294F82C3043F0010384F82D20FF2184F82E1003F0C10362F3861384F82C302262002D7CD02B4653F8102F5B682261EF
:400E40006361B5F9303023862B6C2364AB6AA36295F83C3084F83C30B5F938302387B5F93A3063876B6B636395F83D2094F83D3062F3000384F83D3095F82C2094F82C309B
:400E800062F3000384F82C3095F82C30C3F3400394F82C2063F3410284F82C2095F82C30C3F38003D2B263F3820284F82C2095F82C30C3F3C003D2B263F3C30284F82C20D6
:400EC00095F82C30C3F30013D2B263F3041284F82C2095F82C30C3F34013D2B263F3451284F82C2095F82C30C3F38013D2B263F3861284F82C2095F82D3084F82D3095F8E1
:400F00002E3084F82E306B6A63622846FFF704FE07462846FFF70CFE024639462046FFF791FE164B4FF49A720B49012003F04AFC6EB1B36922460121304698472046FFF738
:400F40002FFE2046F8BD0020F8BD0020F8BD2046F8BD00BFF45F00000C6000005C0B002028600000900A0020D111000021110000386000004C600000000B002064600000D6
:400F800010B50446FFF70CFEA36900220321204698472046FFF704FE10BD00BF38B505460021FFF7A9FD044614E0636A33B92046FFF7F4FF2046FFF7E3FF06E01B7813F0AC
:400FC000010F02D02046FFF7E9FF21462846FFF793FD0446002CE8D138BD00BF10B504464162FFF7DBFF2046FFF7CAFF10BD00BF2DE9F843DFF8B8900024C9F80040234D55
:401000002C60234F3C60DFF8AC80C8F80040214B1C60214B1C60214E214B48223146204603F0D0FB03F030FC03F0E4FD03F01AFA00F0F4FB00F072FB44211A4803F0BAFABF
:4010400021462046FFF744FEC9F80000286021462046FFF73DFE3860134F3946FFF7BEFF21462046FFF734FEC8F800003946FFF7B5FF2868FFF794FDFFF7E8FC0B4B73223E
:401080003146012003F09EFBBDE8F883480B0020440B00208C0B0020700B00200C600000C46000005C0B0020E8090020D46000004C0B00206C0B002010B504460022028695
:4010C0008369042198472046FFF76AFD10BD00BF90F82C0000F00100704700BF90F82C00C0F34000704700BF90F82C00C0F38000704700BF90F82C00C0F3C000704700BF7F
:4011000008B509E090F82C3013F0400F02D090F82E0008BDFFF7E2FC0028F3D1FF2008BDF0B583B004460D46022A33D1FFF71CFD837E13F0010F2BD1868843F6FF739E4285
:4011400026D069462046FFF7E1FCBDF800303344ADF80030BDF804309B1BADF804306946284603F02DF998B169462046FFF7CEFCBDF802303344ADF80230BDF806309E1BBB
:40118000ADF806606946284603F01AF9034698B9002311E07AB9FFF7E7FC074604F110062046FFF7ADFF03463A462946304602F097FA012300E00123184603B0F0BD00BF11
:4011C00090F82D300B4214BF01200020704700BFF8B505460C461746FFF7C6FC0646FFF717FCA4F10803DBB20A2B04D818B1836B0BB121469847012C06D101212846FFF7FE
:40120000DFFFC8B90120F8BD042C08D1B6F91030B5F93020934211DD2B860120F8BD032C04D12846FFF748FF0120F8BD062C07D1044B3B600120F8BD0020F8BD0120F8BD3F
:401240000120F8BDE46000002DE9F04F83B0002542E005EB85025300234A13441B7AD3BB002433E004EB840253001F4A13441B7A5BBBAC4229D0904605EB85035F0002EBE9
:40128000070904EB8403590056183146484603F075F8D0B132464946684603F02DF8684602F0F0FF8346484602F0ECFF8246304602F0E8FF5044834507D26B4603CB48F860
:4012C0000700C9F80410012232720134064BB3F840319C42C6D30135034BB3F840319D42B7D303B0BDE8F08F9C83FF1F2DE9F04107468846103103F063F868B398F82C301D
:4013000013F0100F2AD108F10406304603F0A0F9044600250AE021463846FFF7E7FF054630B92146304603F09FF90446002CF2D1BDB94046FFF718FC8379FF2B11D1D8F8BE
:401340001C30022239464046984750B14046FFF7D7FEFF2805D103E0002502E0002500E045462846BDE8F08190F82C3013F0100F6AD170B58AB00E460446B0F9305004A9B8
:40138000FFF7C4FBABB2BDF81020D21AADF81020BDF81220D21AADF81220BDF814201A44ADF81420BDF816201344ADF8163004AA314606A802F074FF002843D0E36900229D
:4013C00006A92046984704A92046FFF79FFB04AA314608A802F064FF78B3261D304603F03DF9054627E002A92846FFF78FFB2B8EBDF80820D21AADF80820BDF80A20D21A1A
:40140000ADF80A20BDF80C201A44ADF80C20BDF80E201344ADF80E3002AA08A9684602F03FFF18B169462846FFF79EFF2946304603F026F90546002DD5D1E369012206A9C9
:40144000204698470AB070BD704700BF2DE9F0410E46804610B9FFF72FFB804631464046FFF782FF4046FFF739FB0746414615E03D1D284603F004F9044608E03146204606
:40148000FFF772FF2146284603F0FAF80446002CF4D13846FFF722FB39460746002FE7D14046FFF71BFB044608E0E36901223146204698472046FFF711FB0446002CF4D1FA
:4014C000BDE8F08110B582B0044600F0DFFB38B9114B4FF4D9721149022003F073F919E002462146684602F0DBFEFFF7E5FA01466846FFF7FBFE6946FFF7A8FFFFF7E2FA1D
:401500006946FFF7A3FFFFF7E3FA6946FFF79EFF00F0C8FB02B010BDEC600000006100002DE9F04182B00546B0F90430B0F900209A1A013212B2B0F90670B0F90230FB1A4C
:4015400001331BB23F2F00DD3F2740F23331B1FBF2F21E469A4200DC1646374BD3F844312BB30023ADF80030ADF80430ADF8023034B2ADF80640304BD3F8443168469847BA
:40158000013C24B2BDF90620BDF90230D31A01331BB29E4201DA002CEBD13CB9274B4FF4BA722749022003F00DF942E0561CB5F902404FF0000820E000F068FB034638B90A
:4015C000204B40F281121E49022003F0FBF830E0B5F900200280B5F90420828044803444A4B2621E12B2C280974200DAC780B3F906802846FFF766FF24B2A319013BBB4240
:40160000DADDB84515D000F041FB38B90D4B40F293120B49022003F0D5F80AE0B5F900200280B5F9042082804480C7802846FFF749FF02B0BDE8F0819C83FF1F1C61000048
:4016400000610000EC60000070B50024124BC3F848411AE004EB840253000F4A13441B7A93B9164604EB8403580015182846FFF757FFD6F84C313BB1284602F003FED6F809
:4016800048311844C6F848010134034BB3F840319C42DFD370BD00BF9C83FF1F38B51A4BBB221A49002003F08DF802F0CDFD044602F04AFD28B9164BC022144903F082F89F
:4016C00038BDFFF7C1FDFFF7BFFF124BB3F840319BB1104D4FF4A0720021284604F01BF80023A5F84031D5F84C5135B1204602F0B7FD084BD3F84811A847074BF9220349D4
:40170000002003F05FF838BD6C610000006100008C6100009C83FF1FA861000010B509480024A0F840414FF4A072214603F0F3FF234603221E21044803F008F903F04AFAB1
:4017400010BD00BF9C83FF1F9D16000020B90022254BA3F84021704730B585B001460023ADF80830ADF80A307F23ADF80C303F23ADF80E3002AA684602F092FD90B31A4B44
:40178000D3F844310BB16846984700240AE004EB8402530014491944684602F011FE08BB0134A4B2104BB3F840319C42EFD31F2B09D80D4C03EB83035A00A5186B4603CB6E
:4017C000A050696008E0084B0022A3F8402104AA12E9030083E80300034AB2F840310133A2F8403105B030BD9C83FF1F014BB3F8400170479C83FF1F074BB3F840318342D8
:4018000004D20022044BA3F8402170471B1A024AA2F84031704700BF9C83FF1F2DE9F04FDB4B1A786FF300021A70FF229A71997841F001019970D97841F00101D970002608
:401840009E8008219982D9821983197A66F3000119725A735E810F211973997B41F001019973012199741E8283F82820197F66F300011977C74919624FF0020EA3F824E04F
:40188000A3F826E083F82E2093F82C1066F3000183F82C1083F82D6083F8342093F8302066F3000283F83020A3F832E093F8352066F3000283F83520B74F3D461C460FCC90
:4018C0000FC50FCC0FC50FCC0FC594E8030085E80300DFF8D8824446BC46BCE80F000FC4BCE80F000FC4BCE80F000FC495E8030084E8030098F81C3043F0010388F81C30AA
:4019000098F82C3043F0010388F82C3098F8303043F0010388F8303098F8023043F0010388F8023088F803309C4CA046BC46BCE80F00A8E80F00BCE80F00A8E80F00BCE82B
:401940000F00A8E80F0095E8030088E80300237F66F30003237794F82C3066F3000384F82C3094F8303066F3000384F83030A37843F00103A370E37843F00103E3704FF065
:40198000060CA4F804C0237A66F300032372A4F80AE04C236373DFF818A2D1460FCCA9E80F000FCCA9E80F000FCCA9E80F0098E8030089E803009AF81C3043F001038AF8B5
:4019C0001C309AF82C3043F001038AF82C309AF8303043F001038AF830309AF8023043F001038AF802309AF8033043F001038AF803309AF8083066F300038AF80830684C99
:401A0000A246B846B8E80F00AAE80F00B8E80F00AAE80F00B8E80F00AAE80F0095E803008AE80300A37E43F00103A376237843F0010323706681DFF87C81C1460FCCA9E8D7
:401A40000F000FCCA9E80F000FCCA9E80F009AE8030089E80300A8F81660A8F81460DFF858B1DA4644460FCCAAE80F000FCCAAE80F000FCCAAE80F0099E803008AE8030047
:401A8000ABF81860474CA0460FCFA8E80F000FCFA8E80F000FCFA8E80F0095E8030088E80300A37843F00103A370E37866F30003E370A4F804C01923E3821023A3820A2333
:401AC0002383237A66F300032372A4F80AE0B2236373A37B43F00103A3732682237F43F00103237794F82C3043F0010384F82C30DFF8C8E0754627460FCF0FC50FCF0FC5F9
:401B00000FCF0FC597E8030085E803009EF8023043F001038EF802309EF8033066F300038EF803309EF81C3043F001038EF81C309EF82C3043F001038EF82C309EF8303080
:401B400043F001038EF83030174D2F46A646BEE80F000FC7BEE80F000FC7BEE80F000FC79EE8030087E80300AB7866F30003AB70EB7843F00103EB702B7A66F300032B72BA
:401B80002B7F43F001032B7795F82C3018E000BF900A0020D880FF1F200A00204009002098080020D0080020580A0020000B002060080020E809002078090020080900204F
:401BC00043F0010385F82C3095F8303043F0010385F83030DFF8B0C0E6460FCDAEE80F000FCDAEE80F000FCDAEE80F0097E803008EE803009CF8023066F300038CF802300B
:401C00009CF8033066F300038CF803309CF81C3043F001038CF81C309CF82C3043F001038CF82C309CF8303043F001038CF83030144F3D460FCC0FC50FCC0FC50FCC0FC5DA
:401C400094E8030085E80300BB7843F00103BB70FB7843F00103FB703B7A43F001033B723B7F66F300033B7797F82C3066F3000387F82C3097F8303066F3000387F830301E
:401C8000BDE8F08FB0090020C80A0020034B1B7813F0FF0FFAD10248704700BFEC84FF1FCC80FF1F10B582B0FFF7F0FF30B90C4B60220C49022002F085FD0FE004460122DB
:401CC000094B1A70B0F90000B4F90210B4F90420B4F90630A468009402F03CFA02B010BDEC600000C8610000EC84FF1F0022014B1A707047EC84FF1F034698B1072809DCBD
:401D0000431E094850F82330585C00FB02F0C0F307207047480000FB0222580092FBF0F0C0B2704700207047E46100004910884203DB88B208B1013880B25210904203DB42
:401D400090B208B1013880B208B1013880B270472DE9F04F89B00546009117469088927801928DF80820FA7804928DF81720B5F80690B5F90240C4EB0904013424B2B5F98D
:401D800004A0B5F900B0CBEB0A01013109B2FF2B01D1BE7904E0BE7906FB03F3C3F307262246FFF7C3FF04EBD473B0EB630F6ADCADF818B0ADF81CA0049B019A534013F004
:401DC000010F1CD1B5F9023003449BB2ADF81A30C0EB090080B2ADF81E00B7F904202AB10233ADF81A300238ADF81E00274B1C6833469DF80420009906A8A04743E0B5F9E3
:401E0000023003449BB20FFA83FAC0EB090080B20FFA80FBB7F9042032B103F1020A0FFA8AFA02380FFA80FBBAF1000F27DA4FF0000A9DF8179024E0ADF81AA0ADF81EA0E4
:401E4000B5F90630CAEB0303C3EB0323B3FBF4F313F0800F03D0029B03F0010301E009F0010363F30008094B1F6833464246009906A8B8470AF1010A0FFA8AFA01E09DF8FA
:401E80001790DA45D8DD09B0BDE8F08F3C6200002DE9F04F8BB0044602911746B2F90420069290B2B4F904B0B4F900200792C2EB0B01013109B2B4F80690B4F802A0CAEB07
:401EC0000902013212B27D890495FF2B02D17B7B019305E07D7B05FB03F3C3F3072301933D7B3B7A0393049B5E1EB6B2FFF71EFF8046864205D9331A013B1BB2059333B29B
:401F000003E0431C1BB200220592069A002A7FD105F0020303F0FF07ABB1BDF81C30ADF82030ADF824B0B4F90230ADF822303344ADF82630434BD3F80080019B9DF80C2083
:401F4000029908A8C04715F0080F21D0B4F904309A1BADF82020ADF8243063880FB9002200E0049A1344ADF82230E38815F0010F01D1002200E0049A9B1AADF82630314BCF
:401F8000D3F80080019B9DF80C20029908A8C04715F0040F20D0B4F90030ADF820303344ADF8243063880FB9002200E0049A1344ADF82230E28815F0010F01D1002300E0E8
:401FC000049BD31AADF826301E4B1F68019B9DF80C20029908A8B84715F0010F00F07881B4F90030ADF82030B4F90430ADF82430B4F906309E1BADF82260ADF82630114BFF
:402000001C68019B9DF80C20029908A8A0475FE103F1010B1FFA8BFB05F0020303F0FF0204921BB1DA44ADF822A002E0C244ADF822A015F0010A07D0CBEB0909ADF8269080
:4020400006E000BF3C620000C8EB0909ADF8269015F0040F0FD0B4F90030ADF820303344ADF824309C4BD3F80090019B9DF80C20029908A8C84715F0080F0FD0B4F90430EF
:40208000ADF824309B1B0AA820F8083D924BD3F80090019B9DF80C200299C847B4F90030BDF814205B449B1AADF82030B4F90430CBEB030B9344ADF824B0049B7BB1B4F9A7
:4020C0000230ADF822303344ADF82630824BD3F80090019B9DF80C20029908A8C847BAF1000F0FD0B4F90630ADF826309B1BADF82230794BD3F80090019B9DF80C2002992B
:4021000008A8C847059B002B7AD005F00603062B1AD1B4F90030ADF8203043440133ADF82430B4F9023008EB03020232ADF822203344ADF82630684BD3F80090019B9DF888
:402140000C20029908A8C84705F00A030A2B1BD1B4F90420C8EB0203013BADF82030ADF82420B4F9023008EB03020232ADF822203344ADF82630584BD3F80090019B9DF880
:402180000C20029908A8C84705F00503052B19D1B4F90030ADF8203043440133ADF82430E3889A1BADF82220C8EB0303023BADF82630494BD3F80090019B9DF80C2002991D
:4021C00008A8C84705F00903092B19D1B4F90420C8EB0203013BADF82030ADF82420E3889E1BADF82260C8EB0303023BADF82630394B1E68019B9DF80C20029908A8B04779
:40220000B7F90430002B63D115F0060F15D0B4F90030ADF820300133ADF82430B4F90230ADF822300133ADF826302B4B1E68019B9DF80C20029908A8B04715F00A0F15D0BA
:40224000B4F904305A1EADF82020ADF82430B4F90230ADF822300133ADF826301E4B1E68019B9DF80C20029908A8B04715F0050F15D0B4F90030ADF820300133ADF8243097
:40228000B4F906305A1EADF82220ADF82630124B1E68019B9DF80C20029908A8B04715F0090F15D0B4F904305A1EADF82020ADF82430B4F906305A1EADF82220ADF82630E9
:4022C000054B1C68019B9DF80C20029908A8A0470BB0BDE8F08F00BF3C62000070B101280ED0C1EBC101431EB1FBF3F1C9B2054B585C00FB02F0C0F30720704700207047E4
:40230000CC207047446200002DE9F04F9DB00391114605929488B2F80A90127A8DF84F2091F80CB0FF2B02D14B7B049306E0059A527B02FB03F3C3F307230493A9F1020950
:402340001FFA89F98588B0F80080C8EB05010131C6884788F21B013212B209B22046FFF7E5FC044600EB080301339BB20A933B1801339BB209931BB21493331A013B9BB271
:402380000C931BB215932B1A013B9BB20B9303B20E931A460DF16A011BA802F033F8C9EB040423B20793002B01DB1A4600E000220DF1620119A802F025F8002308930F9379
:4023C000CAE2BDF96610BDF96420914204DA9A1A12B21092119207E0069A9A1A92B211B21091013A12B211920E9A9A4200F0C180BDF83C70069BDD1B2DB20024B1E0052D63
:4024000006DD049A21462846FFF768FF064607E0049E324621462846FFF76EFC301AC6B20BF00903092B20D1604BD3F800A0BDF838801FFA84F9059B1B7A0C9AD11949440E
:402440000B98404401300096039A09B200B2D047059B1B7A0C99414401310B98384448440096039A09B200B2D0470BF00503052B24D14E4BD3F800A01FFA84F9BDF838802B
:40248000059B1B7A0C9A02EB080E0EF101010A98C01BC9EB00000096039A09B200B2D047059B1B7A0C99394449440A98C8EB000001380096039A09B200B2D0470BF0060328
:4024C000062B24D1394BD3F800A0BDF838801FFA84F9059B1B7A099AD11BC9EB01010A98C8EB000001380096039A09B200B2D047059B1B7A0999C8EB010101390A98C01BC2
:40250000C9EB00000096039A09B200B2D0470BF00A030A2B23D1254BD3F800A01FFA84F9BDF83880059B1B7A099AC8EB020E0EF1FF310B98384448440096039A09B200B20C
:40254000D047059B1B7A0999C91BC9EB01010B98404401300096039A09B200B2D047013424B2AC42FFF64BAFBDF96C300E93069B0F93BDF964300799994200F0E080BDF9DB
:402580006E301293BDF820200D929B1A1DB200248A46CCE0052D0BDD049E324621462846FFF79CFE301AC3B2069307E040620000049A21462846FFF79FFB06900BF0090900
:4025C000B9F1090F11D1059B1B7A0C9A0D99511821440B9A02EB0A000138069A0092A64A1668039A09B200B2B0470BF00508B8F1050F11D1059B1B7A0C9A02EB0A010139BE
:402600000A9A0D98101A001B069A00929A4A1668039A09B200B2B0470BF00607062F11D1059B1B7A099A0D99511A091B0A9ACAEB02000130069A00928F4A1668039A09B2DE
:4026400000B2B0470BF00A0307930A2B12D1059B1B7A099ACAEB020101310B9A0D9810182044069A0092844A12681646039A09B200B2B0470AF1FF33089A2244934254D05A
:40268000B9F1090F12D1059B1B7A0C9A02EB0A0101390B9A0D9810182044069A0092764AD2F80090039A09B200B2C847B8F1050F12D1059B1B7A0C9A0D99511821440A9A9A
:4026C000CAEB02000130069A00926B4AD2F80080039A09B200B2C047062F11D1059B1B7A099ACAEB020101310A9A0D98101A001B069A0092604A1768039A09B200B2B847E5
:40270000079B0A2B11D1059B1B7A099A0D99511A091B0B9A02EB0A000138069A0092564A1668039A09B200B2B047013424B2AC42FFF630AFBDF964300793129B08930BF0B9
:402740000903092B36D1BDF96C300B9D2B449BB2119A9A1AADF85820ADF85C30BDF96E300C9E33441BB2ADF85A30ADF85E30434B1C68DDF810904B469DF84F804246039F65
:40278000394616A8A047BDF96E302B441BB2ADF85830ADF85C30BDF96C3033449BB210981A1AADF85A20ADF85E304B464246394616A8A0470BF00503052B36D1BDF96E30F8
:4027C0000A9DEB1A1BB2ADF85830ADF85C30BDF96C300C9E33449BB2119A9A1AADF85A20ADF85E30254B1C68DDF810904B469DF84F804246039F394616A8A047BDF96C3093
:40280000EB1A9BB2ADF8583010980344ADF85C30BDF96E3033441BB2ADF85A30ADF85E304B464246394616A8A0470BF00603062B42D1BDF96E30159AD118149AD21A914221
:402840001EDDBDF96C200A998A1A92B2ADF8582011990A44ADF85C20099AD31A1BB2ADF85A30ADF85E30054B1C68049B9DF84F20039916A8A04703E0406200003C620000C0
:40288000BDF96E300A9AD31A1BB2ADF85830ADF85C30BDF96C30099AD31A9BB2ADF85A30109A1344ADF85E30344B1C68049B9DF84F20039916A8A0470BF00A030A2B3BD146
:4028C000BDF96E300B9A13441BB2ADF85830ADF85C30BDF96C30099AD31A9BB2ADF85A30119A1344ADF85E30244B1C68049B9DF84F20039916A8A047BDF96E20159B99184E
:40290000149B9B1A994217DDBDF96C100B9B194489B2109BCB1AADF85830ADF85C10099B9B1A1BB2ADF85A30ADF85E30049B9DF84F20039916A8A0470DF16A011BA801F09D
:4029400073FDBDF96620BDF964309A4204DA0DF1620119A801F068FDBDF96E301A460693BDF96C309A427FF72CADBDF83CA0CAEB02090FFA89F90024A5E000BF3C62000083
:40298000049D2A4621464846FFF7B6F9281AC5B20BF00903092B20D17E4BD3F80080BDF83860A7B2059B1B7A0C9A02EB0A0139440B98304401300095039A09B200B2C0478F
:4029C000059B1B7A0C99314401310B98504438440095039A09B200B2C0470BF00503052B22D16C4BD3F80080A7B2BDF83860059B1B7A0C9A02EB060E0EF101010A98CAEBFB
:402A00000000C01B0095039A09B200B2C047059B1B7A0C99514439440A98801B01380095039A09B200B2C0470BF00603062B21D1584BD3F80080BDF83860A7B2059B1B7A1D
:402A4000099ACAEB0201C91B0A98801B01380095039A09B200B2C047059B1B7A0999891B01390A98CAEB0000C01B0095039A09B200B2C0470BF00A030A2B22D1454BD3F8E3
:402A80000080A7B2BDF83860059B1B7A099AC6EB020E0EF1FF310B98504438440095039A09B200B2C047059B1B7A0999CAEB0101C91B0B98304401300095039A09B200B276
:402AC000C047013424B24C45FFF65AAF0E9B0F9A9B1A002BB8BF5B424B454DD1049B5D080BF00903092B0ED1BDF83820059B1B7A0C9911440B9810440095264A1468039AD2
:402B000009B200B2A0470BF00503052B0ED1BDF83820059B1B7A0C9911440A98801A00951C4A1468039A09B200B2A0470BF00603062B0ED1BDF83820059B1B7A0999891AB4
:402B40000A98801A0095134A1468039A09B200B2A0470BF00A030A2B0ED1BDF83820059B1B7A0999891A0B9810440095094A1468039A09B200B2A047BDF96630BDF820A00A
:402B8000CAEB03031BB20024DDF81C90CDF834A09A46BDE040620000049A21465046FFF7ABF806900BF00908B8F1090F11D1059B1B7A0C9A0D99511821440B9A02EB0900CD
:402BC0000138069A0092554A1568039A09B200B2A8470BF00507052F11D1059B1B7A0C9A02EB090101390A9A0D98101A001B069A00924A4A1568039A09B200B2A8470BF067
:402C00000606062E11D1059B1B7A099A0D99511A091B0A9AC9EB02000130069A00923F4A1568039A09B200B2A8470BF00A0307930A2B12D1059B1B7A099AC9EB020101312E
:402C40000B9A0D9810182044069A0092334A12681546039A09B200B2A84709F1FF33089A2244934252D0B8F1090F12D1059B1B7A0C9A02EB090101390B9A0D981018204450
:402C8000069A0092254AD2F80080039A09B200B2C047052F11D1059B1B7A0C9A0D99511821440A9AC9EB02000130069A00921B4A1768039A09B200B2B847062E11D1059B53
:402CC0001B7A099AC9EB020101310A9A0D98101A001B069A0092114A1668039A09B200B2B047079B0A2B11D1059B1B7A099A0D99511A091B0B9A02EB09000138069A00924D
:402D0000064A1568039A09B200B2A847013424B25445FFF641AF1DB0BDE8F08F406200002DE9F04FB9B01C9003912892908891781F918DF838101146D2781E928DF8302035
:402D4000FF2B02D18B79119306E0289A927902FB03F3C3F3072311931C99CC884D88631B01331BB21A4616938F880E88B91B013109B2FEF7DBFF1D9006440136B6B233B266
:402D8000ADF8DC3000EB050808F101081FFA88F80FFA88F2ADF8DE20ADF8D830241A013CA4B223B2ADF8DA303D1A013DADB229B2ADF8D410ADF8D620ADF8D010ADF8D23088
:402DC00003B212931A460DF1AA012BA801F01AFBBDF8AC10BDF9AE20224412B26B18711A00921BB209B22EA801F044FABDF8AE10BDF9AC20224412B26B18711A00921BB2BF
:402E000009B22CA801F036FABDF8AC10BDF9AE20C2EB080212B26B18711A00921BB209B230A801F027FABDF8AE10BDF9AC20C2EB080212B26B18711A00921BB209B232A8EE
:402E400001F018FA00231393D046D9462CE2BDF9AC301299994200F00181BDF9AE301793BDF84CB0CBEB03031BB204931D9B14935B1AC3EB0323169A1592B3FBF2F35BB20B
:402E8000002B03DA0C9A02F0010202E00E9A02F00102189962F300018DF860108DF8A510002B03DA0E9B03F0010302E00C9B03F001031A9A63F300028DF868208DF8A42030
:402EC0004FF0000A5546CA46C146BCE0049B052B06DD119A29461846FFF700FA064607E0119C224629460498FEF706FF201AC6B2A54B1F68BDF8D0300593ACB2BDF8D22059
:402F00000692BDF8488002EB080101310BEB0300204400969DF8A430039A09B200B2B847BDF8D8200792BDF8DA10089141440131CBEB0200001B00969DF8A430039A09B290
:402F400000B2B847BDF8DC300993BDF8DE200A92C8EB02010139CBEB0300001B00969DF8A530039A09B200B2B847BDF8D41008460B91BDF8D6101091C8EB010101395844DD
:402F8000204400969DF8A530039A09B200B2B847149B139A9B1A1D44C5EB0525159BB5FBF3F56DB2002D03DA0E9B03F0010302E00C9B03F0010363F30009069B5B441946C9
:402FC0002144059B43441846013000964B46039A09B200B2B847089B5B4419462144079BC8EB0300013800964B46039A09B200B2B847002D03DA0C9B03F0010302E00E9B8C
:4030000003F0010363F3000A0A9BCBEB0301091B099BC8EB0300013800965346039D2A4609B200B2B847109BCBEB0301091B0B9B984408F10100009653462A4609B200B267
:40304000B847013425B2049B9D42FFF63FAFC846D146BDF9AC301293179B1393BDF9BA00BDF9AE20BDF9DA105318984201D1002400E00124BDF9B230BDF9AC0001448B4250
:4030800001D1002700E00127BDF9C210BDF9DE309A1A914201D1002500E00125BDF9CA201B1A9A4201D1002300E001233BB39DF8380003460C994B4013F0010F01D1024634
:4030C00017E01C9BB3F906309A1AC2EB0222169BB2FBF3F212F0800F03D00E9B03F0010302E00C9B03F00103269A63F300028DF89820264B1E68119B039932A8B0473DB39F
:403100009DF8382013460C994B4013F0010F19D01C9BB3F90630BDF9C2209B1AC3EB0323169AB3FBF2F313F0800F03D00E9B03F0010302E00C9B03F00103249A63F3000285
:403140008DF89020114B1D68119B039930A8A84764B39DF8382013460C994B4013F0010F1ED01C9BB3F90630BDF9BA209B1AC3EB0323169AB3FBF2F313F0800F08D00E9B94
:4031800003F0010307E000BF406200003C6200000C9B03F00103229A63F300028DF88820B64B1C68119B03992EA8A0473FB39DF8382013460C994B4013F0010F19D01C9BAE
:4031C000B3F90630BDF9B2209B1AC3EB0323169AB3FBF2F313F0800F03D00E9B03F0010302E00C9B03F00103209A63F300028DF88020A24B1C68119B03992CA8A047BDF8B4
:40320000D870BDF8AC10BDF8DA40BDF8AE00BDF8D050BDF8D2604B192218791A304400B200901BB212B209B22EA801F023F8BDF8AE10BDF8AC006B182218791A064436B27C
:4032400000961BB212B209B22CA801F013F8BDF8DC70BDF8AC10BDF8DE50BDF8AE00BDF8D460BDF8D6408B192A1A791A201A00B200901BB212B209B230A800F0FBFFBDF876
:40328000AE10BDF8AC0073182A1A791A241A24B200941BB212B209B232A800F0EBFF0DF1AA012BA801F0C0F82BA801F0B3F800287FF4CDAD1F9A13461E994B4013F0010FD5
:4032C00014D01C9BB3F90630BDF9CA209B1AC3EB0323169AB3FBF2F313F0800F03D01F9B03F0010202E01E9B03F00102634B1C68119B039932A8A047BDF9CA30BDF9C220BC
:40330000934221D01F990B461E98434013F0010F01D10A4612E01C9BB3F906309B1AC3EB0323169AB3FBF2F313F0800F03D01F9B03F0010202E01E9B03F001024F4B1C6835
:40334000119B039930A8A0471F9A13461E994B4013F0010F14D01C9BB3F90630BDF9BA209B1AC3EB0323169AB3FBF2F313F0800F03D01F9B03F0010202E01E9B03F0010260
:403380003E4B1C68119B03992EA8A047BDF9B220BDF9BA309A4221D01F990B461E98434013F0010F01D10A4612E01C9BB3F906309B1AC3EB0323169AB3FBF2F313F0800FA6
:4033C00003D01F9B03F0010202E01E9B03F001022A4B1C68119B03992CA8A0471C9DB5F900301D9E33440233ADF8C830B5F904309B1B023BADF8CC30B5F90230ADF8CA302D
:40340000ADF8CE301D4B1C68DDF844904B46289FBA78DDF80C80414632A8A047B5F90630ADF8CA30ADF8CE304B46FA78414632A8A047BDF9AE30BDF84C90C9EB03031BB204
:4034400004931496129B1793F31AC3EB0323169A1592B3FBF2F35BB2002B03DA1E9A02F0010202E01F9A02F001028DF8A520002B06DA1F9B03F0010305E000BF3C6200004F
:403480001E9B03F001038DF8A4304FF0000845469DF8A6809DF8A7B0B2E0119C224629460498FEF729FC201AC6B28C4B1F68BDF8D0300593ACB2BDF8D2200692BDF848A027
:4034C00002EB0A01013109EB0300204400969DF8A430039A09B200B2B847BDF8D8200792BDF8DA10089151440131C9EB0200001B00969DF8A430039A09B200B2B847BDF86C
:40350000DC300993BDF8DE200A92CAEB02010139C9EB0300001B00969DF8A530039A09B200B2B847BDF8D41008460B91BDF8D6101091CAEB010101394844204400969DF8FC
:40354000A530039A09B200B2B847149B139A9B1A1D44C5EB0525159BB5FBF3F56DB2002D03DA0E9B03F0010302E00C9B03F0010363F30008069B4B4419462144059B534407
:403580001846013000964346039A09B200B2B847089B4B4419462144079BCAEB0300013800964346039A09B200B2B847002D03DA0C9B03F0010302E00E9B03F0010363F323
:4035C000000B0A9BC9EB0301091B099BCAEB0300013800965B46039D2A4609B200B2B847109BC9EB0301091B0B9B9A440AF1010000965B462A4609B200B2B847013425B2D1
:40360000049B9D42FFF649AF179B139A9B1A002BB8BF5B42049A93425DD1129BC3EB0323169AB3FBF2F35BB2002B03DA1E9A02F0010202E01F9A02F001024FF0000562F37C
:403640000005002B03DA1F9B03F0010302E01E9B03F001034FF0000763F30007119B4FEA53081E4B1E68BDF9D000BDF84840BDF9D21021442044CDF800803B46DDF80C90CD
:403680004A4609B200B2B047BDF9D800BDF9DA102144001BCDF800803B464A4609B200B2B047BDF9DC00BDF9DE10091B001BCDF800802B464A4609B200B2B047BDF9D40005
:4036C000BDF9D610091B2044CDF800802B464A4609B200B2B04739B0BDE8F08F40620000F8B5B0F90640B0F90250641B013424B2002C36DDB0F90440B0F90050641B013453
:4037000024B2002C2DDD1D4614460F460646937E13F0010F0ED193790F2B0BD92B46FEF717FBB4F904302BB12B46224639463046FFF7F6FAB4F90A309BB1237B8BB1637B1E
:403740000F2B0ED92B46224639463046FEF7A0FBB4F904302BB12B46224639463046FEF7D3FDF8BD2DE9F04F85B0039117469A469DF83890B0F90430B0F90080C8EB030849
:4037800008F101080FFA88F800F0DEFCC368FBB18346B7F9006016E0B7F902404D460BE0DBF80C9001958DF800A02346324641460398C847013424B2B7F906309C42EFDDC7
:4037C000A946013636B2B7F904309E42E4DD61E0B7F90200039B08FB0031B9F1FF0F27D1B7F9003003E001F803A001331BB2B7F904209342F7DDB7F9005001EB0509551B7A
:4038000001352DB246468844B7F90240013424B209E0B7F900002A464946404401F070FFB044013424B2B7F906309C42F1DD31E04FF000054FFA89F9B9F1000F02DA0AF062
:40384000010E23E04FF0000E20E0B7F9003016E0CE18CA5C6A4012F0010F0CD0CA5C1546B9F1000F02DA0AF0010201E002F0010262F30004A64686F800E001331BB2B7F932
:4038800004209342E4DD4144013000B2B7F906309842DADD05B0BDE8F08F00BFF8B5FF2B13D101F02DFFF8BD071911F804E0055D13F0800F02D00EF0010501E005F0010597
:4038C00065F300063E70013400E000249442EBD3F8BD00BF2DE9F04782B09DF828600F2E52D9FB2E00D9FF261F46144688460546FEF7CCF9814630B9254B4A2225490220A2
:4039000000F060FF40E0B4F90030AB423CDCB4F904309D4238DCB4F90230434534DCB4F90630984530DCB0F904A00288C2EB0A0A0AF1010A0FFA8AFAAA1A14B2B0F90210AF
:40394000C1EB08010FFA81F800F0FEFBC5684DB1D9F8080001968DF80070434622465146A84711E0D9F8082008FB0A44FF2E01D1175509E0135D16F0800F02D007F00107BB
:4039800001E003F00107175502B0BDE8F08700BFEC600000606200000F2B41D92DE9F04186B005460E4617461C46FB2B00D9FF24FEF76CF9804630B91A4B7D221A49022041
:4039C00000F000FF29E03246294604A800F068FC18B3BDF91030B8F900209B1AADF80830BDF91230B8F902209B1AADF80A30BDF91430B8F900209B1AADF80C30BDF9163008
:403A0000B8F902209B1AADF80E30D8F8081000943B4602AA4046FFF7A5FE06B0BDE8F081704700BFEC600000606200002DE9F04F9FB086460D4614461F469DF8A0308DF897
:403A400010309DF8A4B000238DF87430FF238DF87530AD4B18681C9018AE53F8040F59689A68DB680FC6BBF10F0F40F28B81BBF1FB0F01D94FF0FF0B34B9A44BF822A4499E
:403A8000022000F09FFE7DE1BEF900300693BEF9023009933946204600F026FD804694F820603946204600F031FD03903946204600F0DCFC60B13946204600F0FFFCC8EB53
:403AC000000000EBD070069B03EB600003B20693039B013B072B00F25581DFE813F00800170053010D005301530153011200802308931DAB0B930DE0F023089318AB0B9392
:403B000008E0FF23089300230B9303E0C02308931CAB0B933946204600F0C0FC0290002800F03081069A174602EB0804B5F900309C42C0F22781B5F904309A4200F322810D
:403B4000099A06EB0209B5F902309945C0F21A81B5F906309A4200F31581FEF797F80E9038B96C4B40F229126949022000F02AFE08E10E99B1F90430B1F900001B1A0133AE
:403B80001BB20F93D1F808E0039B9A4603FB08F3C3F3C70213F0070F01D00132D2B2B5F900300699994203DA5B1A1BB2129301E000231293B5F904309C4203DC0FFA88F366
:403BC000984604E006995B1A01331BB29846B5F90230099C9C4203DA1B1B1BB20C9301E000230C93B5F90630994502DC33B2139304E009995B1A5E1C33B213930E9BB3F90B
:403C000002300999CB1A0F9C1494254604FB03731B1A129815900C9C04FB05073B440EEB03071692039B00FB03F317934FEAE30902FB0492029B1344994600F085FA0D9067
:403C4000CDF828B099E0344D179B1D4003D5013D65F007050135EDB2089B43FA05F6F6B2129C0023079378E099F8003006EA03020295C5F10803CAEB030342FA03F313F00E
:403C8000FF0153D00A9AFF2A06D1039A082A14D0DBB20B9AD15C10E0039A082A05D10A9B01FB03F1C1F3072107E0DBB20B9AD15C0A9B01FB03F1C1F307210D9BD3F80CB03F
:403CC000BBF1000F18D00E9A9068B2F900E0B2F902C00C9B099A1344CCEB0303069AA218CEEB020201919DF810108DF800101BB212B20F99D84719E03B7811F0800F0DD0C7
:403D0000049B03F001030BE04C6200008462000060620000EC6000000700008003F00103109A63F300028DF840203A700137CAF10803029A9A4206DA039B1D44EDB246FA1D
:403D40000AF6F6B207E0079B0133DBB2079309F10109089E0025013424B2444584DB169B079A9B1A9944159BC3EB0803149AD31A1F440C9B01331BB20C930C9B139A93423A
:403D8000FFF661AF1FB0BDE8F08F00BF2DE9F04F9BB0154602939DF890A09DF894909DF898208DF858209DF89C2004920F2B40F28B8104460F46FB2B01D9FF230293FDF74B
:403DC00065FF069038B9B44B4FF4C872B349022000F0F8FC78E13A46214618A800F060FA002800F07181B9F1000F02D04FF0020801E04FF00108B4F90430B4F900105B1AF6
:403E000001331BB218461493B4F90220BDF962309A4204DA9A1A00FB02F202FB0855BDF96020914202DA511A01FB0855069CB4F90070D71BBFB238B2ADF86000B4F9022025
:403E40009B1A1AB2ADF86220BDF96430B4F900105B1A9BB2ADF86430BDF96610B4F90240091BADF86610069CB4F90410B4F90040091B013109B20791069CA168079C15944E
:403E800004FB02028A180E92DF1B01373FB200F05BF90590BAF1000F50D1B9F1000F4DD1029BFF2B4AD1049B002B47D1C3687BB3BDF96290CDF80C90DDF818908246DDF8CF
:403EC00008B01FE008FB04F3EB5CDAF80C60D9F80800BDF96020A4B22244CDF804B08DF80030039B12B20799B047013424B200E00024BC42E6DB149B08FB0355039B0133F0
:403F00001BB20393BDF96630039A9A42F0DDDBE0BDF962400E9E0CE0029B3A4629463046FFF7BCFC149B08FB0355159B1E44013424B2BDF966309C42EEDDC5E04FF000032E
:403F40008DF820309DF910300F93002B03DA169B03F0010300E000238DF82830BDF962300393ACE0214608FB04F3EA18B9F1000F0ED0EB5C63F300065378002B00F088806F
:403F8000FF2B08D0029A03FB02F3C3F3072303E0EE5C029B00E0029BBAF1000F04D086F0010212F0010F73D0049A002A47D0089A724012F0010F11D08DF820600F9A002AEF
:403FC00003DA169A02F0010201E006F001020C9862F300008DF830008DF82800059AD2F80CB0BBF1000F0ED0069A9068BDF96020224401939DF828308DF80030039B12B280
:404000000799D84744E0FF2B06D10E9A535C0A9860F3000353543BE00E9A5018525C13F0800F03D00A9B03F0010301E002F00103129A63F300028DF84820027028E0059AEB
:40404000D2F80CB0BBF1000F0CD0069A9068BDF96020224401938DF80060039B12B20799D84715E0FF2B02D10E9B5E5410E00E9A5018525C13F0800F02D006F0010301E01B
:4040800002F00103109A63F300028DF840200270013424B205E000BFEC600000606200000024BC42FFF65EAF149B08FB03550E9B159A13440E93039B01331BB20393BDF98B
:4040C0006630039A9A42EBDD1BB0BDE8F08F00BF704700BF0023436083600360C360704738B50546142000F0DFFB30B9124B52221249032000F066FBFEE70446C8B12868E8
:404100006968AA68EB6820606160A260E360002323610B4B1B684BB9094B1C60094B1C60FCF7CAFCFCF73CFD204638BD1C61204638BD002038BD00BF286000001C670000A8
:404140008C0B00202488FF1F014B1868704700BF2488FF1F2DE9F04383B0154C246824B31F4690460E4605462368C3B1114C124BA2222146002000F025FB0D4B1B68D3F8DE
:4041800000900A9B00933B46424631462846C8470A4BA4222146002000F014FB05E0084BA7220449022000F00DFB03B0BDE8F0832488FF1F1C6700003C67000050670000BF
:4041C0006467000010B9024B18687047406C7047700B002070B500230B604B608B600B724368ABB105460C4683684B600D4E0E4B7B223146002000F0E5FA6B6820469847DA
:4042000004460A4B7D223146002000F0DBFA06E0074B7F220349022000F0D4FA0024204670BD00BF9867000084670000B8670000CC670000034B00221A705A681044586065
:40424000704700BF2888FF1F044B01221A7058681B7813F0FF0FF7D0704700BF2888FF1F10B50446FFF7F0FFA04201D3001B10BD001B10BD018042808380BDF90030C380A6
:40428000704700BFB0F90430B0F900209A1AB0F90630B0F90200181A013002FB0000704770B4B2F90040B1F900309C42B8BF1C460480B2F90250B1F902309D42B8BF1D46D7
:4042C0004580B2F90460B1F90430B342A8BF33468380B2F90660B1F90620B242A8BF3246C2809C4203DC954203DC012002E0002000E0002070BC704710B4B2F90040B1F96C
:404300000030A342A8BF23460380B2F90240B1F90230A342A8BF23464380B2F90440B1F90430A342B8BF23468380B2F90620B1F906309342B8BF1346C38010BC704700BF64
:40434000B1F90030B0F9002093420FDBB0F9042093420DDCB1F90230B0F90220934209DBB0F90620934207DD0020704700207047002070470020704701207047B0F900206B
:40438000B1F904309A4213DCB0F90420B1F900309A420FDBB0F90220B1F906309A420BDCB0F90620B1F902309A4207DA0020704700207047002070470020704701207047DD
:4043C000B0F90020B1F900309A4213DBB0F90220B1F902309A420FDBB0F90420B1F904309A420BDCB0F90620B1F906309A4207DD00207047002070470020704700207047AA
:4044000001207047028000234380C2F101020A80704700BFB0F90220B0F900008242CCBF00200120704700BF10B4B0F9023001339BB21AB24280B1F90040002C04DC04EB79
:40444000430301330B800AE0B0F90030013B1BB20380D31A0A8802EB430301330B8010BC704700BF08B5FFF733FE08BD38B504460D460CE0A369294620469847002805DB4E
:40448000236A13F47F2F06D0012038BDE469002CF0D1002038BD002038BD00BF38B504460D4605E0636929462046984720B9E469002CF7D1002038BD38BD00BF38B50446A2
:4044C0000D460DE0A369294620469847002806DB236AC3F3073303B118B2C0B238BDE469002CEFD1002038BD38B504460D4608E0A369294620469847002801DBC0B238BD66
:40450000E469002CF4D1002038BD00BF0BE003688B4207D84368994204D890F8210000F00F007047C0690028F1D1704703688B420AD84268914209D8C91A8368C26852F822
:40454000210003EB10207047002070470020704703688B4207D84268914207D8C91AC36813F8210070474FF0FF3070474FF0FF30704700BF82B0019259B10A46019B23B19B
:40458000036804330198C85003E0036804330021D15002B0704700BF82B0019241B10B461AB102680198885002E002680021995002B0704700234360836011F0030F02D0BE
:4045C00021F0030104310160704700BF38B504460068083000F068F9054698B1002201462046FFF7D9FF626829462046FFF7C2FF616819B12A462046FFF7CEFF6560A368EF
:4046000003B9A560284638BD38B505460068083000F04AF9B8B10446B8B1002201462846FFF7A8FFAA6821462846FFF7B5FFA96819B122462846FFF79DFFAC606B682BB924
:404640006C60204638BD002038BD38BD204638BD08B1406870470020704700BF08B1806870470020704700BF82B00023019318B103680433C8580190019802B0704700BF4C
:4046800082B00023019310B10368C8580190019802B0704768B3F8B5044661B30D46FFF7D7FF854204D12046FFF790FF28BBF8BD2068083000F0F8F80646F8B12946204664
:4046C000FFF7DEFF0746324601462046FFF752FF3A4631462046FFF75FFF324629462046FFF75AFF2A4631462046FFF743FF3046F8BD002070470020F8BDF8BD0020F8BDFB
:4047000070B504460D46FFF7A3FF85420ED129462046FFF7A9FF606010B90023A36070BD002201462046FFF737FF70BD2046FFF795FF85420ED129462046FFF7A1FFA06001
:4047400010B90023636070BD002201462046FFF711FF70BD29462046FFF792FF064629462046FFF781FF0546024631462046FFF701FF324629462046FFF70EFF70BD00BFC6
:4047800038B50C4615461146FFF7BAFF002229462046FFF701FF626829462046FFF7EAFE616819B12A462046FFF7F6FE6560A36803B9A56038BD00BF014B1860704700BF1D
:4047C0003088FF1F032807DC002805DB10B5034C246804B1A04710BD704700BF3088FF1F10B9084B18687047031D006803EB5000021D044B1B6803F500439A4200D3002064
:40480000704700BF3488FF1F11F0030F02D021F0030104310368C3F35E030A1D934200D11946994213D010B4021D535C6FF3000353540368C1EB5303043B545863F35F04DE
:404840005450036861F35F03036010BC7047036861F35F0303607047037813F0010F0FD10368C3F35E038B420CD310B50446FFF7CBFF237843F00103204600F8043B10BDAB
:404880000020704700207047064B1A1D1A601A796FF300021A715A6847F6FC7161F35F025A6070473488FF1FF0B170B5064610F0030F02D020F0030604360024254620461C
:4048C000FFF78EFF044618B13146FFF7C5FF05460CB1002DF3D04DB9054BA12205490220FFF770FF284670BD03487047284670BDE86700000468000038080020124B984281
:4049000021D000B310B5044610F8043C6FF3000300F8043C0438FFF763FF11E0037813F0010F0FD1016854F8043CC3F35E0202EB5102043262F35F0344F8043CFFF750FFF3
:404940000028EBD110BD7047380800202DE9F8438046894615461F462C48FFF779FE044668B92A48FFF732FE064630B9284BAD2228490320FFF726FFFEE750BB3DE0237C13
:4049800003F00703AB420EDC21462048FFF782FE064630B91E4BB3221E490320FFF712FFFEE740B92CE021461848FFF75DFE04460028E4D1002664B91448FFF725FE0646AD
:4049C00030B9134BBC2213490320FFF7FBFEFEE7C8B1C6F80090C6F80880337C65F30203F7606FF3C3033374FFF72EFC70600122094B1A703046BDE8F8830020BDE8F88339
:404A00000020BDE8F8830020BDE8F883380B002028600000206800003C08002010B5044601460748FFF76CFE2046FFF767FF054B1B689C4202D10122034B5A7010BD00BF0D
:404A4000380B0020680B00203C08002038B504464068FFF705FC2368984214D3FFF7F4FB60600C4D00236B702B70A368E06898476B7853B9237C13F0080F08D02046FFF715
:404A8000CDFF012038BD002038BD012038BD012038BD00BF3C08002038B5474B412247490020FFF78FFE464B9B78002B40F08280434B01229A70DB78002B7BD0FFF7C4FB61
:404AC0003F4B586000243E4B00225A701A703D48FFF7BEFD3C4B186033E03A48FFF7C4FD0546394B1868037C13F007032FD0844203D1354B1D60002423E0052B02D1FFF73F
:404B0000A5FF16E074B1027C02F00702237C03F007039A420DDDFFF799FF50B12A4B1C68002319E0FFF792FF18B1274B1C68002312E0234B5B7863B9214B1B785BB9224BFF
:404B40001D60214B19680029C7D1012304E0012302E0012300E00123002BB4D0184C6068FFF77EFBA3681844A060E068FFF778FBB0F5FA7F16D3A268642303FB02F3134A8A
:404B8000A2FB0323C3F34713642B03D8C3F16403DBB200E000230A4C23740023A360FFF753FBE0600020064B9870094B99220349FFF708FE38BD00BF3C68000020680000C6
:404BC0003C080020380B0020680B0020D34D62105468000010B50446FFF736FB2368C01A0138606010BD00BF014BD870704700BF3C08002008B514210348FFF7DBFC012054
:404C0000FFF7F2FF08BD00BF380B0020014B1868704700BF50080020FEE700BFF0B40022174611E050F82760F3B226F0FF0608E001EB420511F812406D78A5550132013BE1
:404C4000DBB2002BF4D10137102FEBD9F0BC7047064B1B78DBB203F00701054A11701B09013213704422034B1A707047CF0100496E5800407658004008B50A46002100F0C3
:404C80004AFD08BD38B50024234B1C801B2202331A70022203F27E231A7008224FF040231A70032103F5007319701C4B1B78DBB21B490B701B4B1A8041F25122023B1A803C
:404CC00019250CE0184B1B7803F0010343EA440404F003044FF4F07000F0C2FC013D0DB1032CEFD115B90320FFF796FF0F4B4FF480721A8007221A7000220D490A7048203F
:404D0000023108701A700222033B1A70094A137843F00103137038BD8040004008010049A146004022420040254200400440004006400040A243004008B500F0E1FC08BD83
:404D400038B572B62B4A137843F00403137000240CE0294D630019194A0011462A44084691882858FFF788FF0134E4B2092CF0D922494FF09040FFF751FF214A137843F021
:404D8000020313701032137843F0020313701D4C237843F040032370A2F58632513A137843F0100313700A2217491848FFF7C4FF082217491748FFF7BFFF0822164917487E
:404DC000FFF7BAFF164A137843F008031370154D61232B70FFF756FF81232B700122124B1A70FFF735FF0E2221461048FFF7A4FF38BD00BFE84600406C680000440000480F
:404E000003500140A0430040B8000048C0510040C400004812510040CC00004822510040224300400048004004000840B043004008B500F039FC03680C2B00D1FEE7FEE729
:404E400008B5094B1A681044084BC31A802B02DC054B186005E000F027FC0C2303604FF0FF32104608BD00BF0081FF1FA80B002008B5104E104D16E029686B68AC6800227C
:404E800004E051F8040B43F8040B0432A242F8D1E868002203E0002143F8041B04328242F9D11035013E002EE6D100F003FCFBF737F9FEE7010000000469000008B5104A11
:404EC000104B1A60104A136843F40073136000230AE0032B03D80D4A52F8231000E00C490C4A42F8231001332F2BF2D90A4B1A780A4B1A70074A0A4B1A60FFF721FF08BDEF
:404F00000004FA050CED00E014ED00E000000000314E00000080FF1FBC760040C080FF1F08ED00E038B50622114B1A7081220E3B1A70082202331A700F2511331D7000246F
:404F400001331C704FF400420A4B1A600721284600F07AFA0849284600F062FA1022074B1A70074B1C70074B1C70074B1C7038BDD649004080E100E0D94F0000900B0020F8
:404F8000960B00209E0B0020940B002008B500F06FFB064A137843F0040313701032137843F00403137000F067FB08BDA543004008B5074B1B7823B9FFF7B4FF0122044B97
:404FC0001A70FFF7E3FF4FF40042024B1A6008BD5408002000E100E038B5A54B1C78A54B1B7813F0400F00F03A81E4B214F0010F00F01D819F4B1B78453B052B00F2148124
:40500000DFE813F006008200120112010600DF0004F0DF0504F00A04082C42D1954B1B78DBB2452B35D1944B1B7813F0FF0F10D0924B1B681B78DBB2914A137004228C4B3E
:405040001A7001228F4B1A7046228A4B1A702C46EDE08D4B1B7813F0020F0DD08B4A137843F00A0313706022824B1A704FF40042874B1A602C46DAE0864A137843F0100323
:4050800013701022844B1A700422023B1A702C46CDE00022764B1A704A22764B1A702C46C5E00A2C2BD1794A137843F0A0031370754B1B7813F0020F14D06E4B1B7813F028
:4050C000080F01D0092300E00A23704A11780B4313706022674B1A704FF400426C4B1A602C46A4E06B4A137843F0100313701022694B1A700422023B1A702C4697E00020A2
:4051000000F076F92C4692E014F0020F36D15D4B1A78D2B2584B1B78DBB29A4210D2594A1378DBB255490968CB5CDBB254490B7004214F4B197013780133DBB2137076E0CE
:40514000514B1B7813F0020F0CD0504A137843F00A0313706022474B1A704FF400424C4B1A6064E04B4A137843F0100313701022494B1A700422023B1A7058E0424B1B7832
:4051800013F0020F0CD0414A137843F09A0313706022384B1A704FF400423D4B1A6046E03C4A137843F01003137010223A4B1A700422023B1A70354A137843F090031370FF
:4051C00035E0364A1378DBB2354908682C490978C9B2C15413780133DBB213701278D2B2304B1B78DBB29A4203D21022204B1A701DE0254B1B7813F0020F0CD0234A137856
:4052000043F00903137060221A4B1A704FF400421F4B1A600BE01F4A137843F0100313700022134B1A7002E0002000F0E1F814F0200F1CD00F4B1B7813F0080F01D001233A
:4052400000E00223114A11780B431370114A137803F0EF0313701022064B1A7038BD054B1B7813F0100F02D11022024B1A7038BDD7490040900B0020950B0020A00B0020A8
:40528000D8490040940B00209C0B0020960B002080E100E0D6490040D94900409E0B0020980B00209D0B0020002948D070B40C4626490978C9B2102906D12549097811F0CE
:4052C000080F11D1002112E020490978C9B260290CD14FF400451F490D601F4D297801F0F7012970002102E0012100E0022149BB4526164D2E700026184D2E70184D2A702B
:40530000184A1460184A1370134C227802F0FD0222704200D2B21548027013F0010F06D012220B4B1A700422023B1A7002E00122074B1A704FF400420D4B1A6002E002217A
:4053400008467047084670BC704700BF900B0020D949004080E200E0960B0020940B0020950B0020A00B00209C0B0020D849004000E100E04FF40042084B1A60084B1878B0
:40538000C0B2084B1B7813F0400F01D040F004004FF40042044B1A60704700BF80E100E0960B0020900B002000E100E04FF40043044A1360044A107800211170034A13607D
:4053C000704700BF80E100E0960B002000E100E0704700BF38B505460078012404E000F0E7F8285D0134E4B20028F8D138BD00BF01BE704710B5044605E0084B186800F054
:405400002FF9A4F50044B4F5004FF6D8034B586800FB04F000F024F910BD00BF1081FF1F70B504460E46074B1D681F2802D90020FFF7DEFF04F01F04103455F8240045F8A4
:40544000246070BD08ED00E038B504460D46072902D90020FFF7CCFF1F2C02D90020FFF7C7FF04F01F0000F1604000F564406D01EDB2057038BD00BF084A137843F00103A7
:4054800013701032137843F00103137002F64D32137843F001031370704700BFA3430040014B1870704700BF034F0040014B1878704700BF034F0040014B1880704700BF70
:4054C000044F0040014B1880704700BF064F004008B5154A137803F0010313700232137803F0FC031370114B1A7802F0CF021A701A7842F030021A701A7802F0F0021A701A
:405500001A7842F00F021A70094A137843F0010313700420FFF7D0FF0420FFF7D3FF0820FFF7BEFF08BD00BF004F00400B4F0040014F004008B5054B1B7823B9FFF7C8FF4E
:405540000122024B1A70FFF797FF08BD55080020024B1B68C3F88400704700BF08ED00E04001C0B2014B1870704700BF11E400E04FF40032014B1A60704700BF00E100E0C5
:405580004FF40032014B1A60704700BF80E100E010B50446FFF7F4FF2046FFF7D9FF0720FFF7DEFFFFF7E4FF10BD00BF00000000FEB5494652465B460EB407462449096806
:4055C0008A46244A12682448022100F059F8030020480068C018204900F052F8143883460121C9430C460125002600F041F8814651460B7823400B705846013000F030F825
:405600003800F04028400B78234003430B70584600F026F80136072EF2D9002001300138013001200B78234003430B705846043000F016F8484600F01FF800BF00BF00BFEB
:405640000EBC894692469B46FEBD00BFAFF300800481FF1F1C81FF1F00C20100000000000230800803D000BF01380046FCD17047EFF3108072B6704780F31088704700BFFA
:40568000002902D0B0FBF1F0704708B14FF0FF3000F008B80029F8D00246B0FBF1F000FB11217047704700BF014B1868704700BF8081FF1F0E4B70B51E460E4C0025E41AF6
:4056C000A410A54204D056F8253098470135F8E701F006F9084B094C1E46E41AA4100025A54204D056F8253098470135F8E770BDEC680000EC680000EC680000F4680000FA
:4057000010B5431E0A44914204D011F8014B03F8014FF8E710BD03460244934202D003F8011BFAE7704730B5141E05469BB0184604DA8B232B604FF0FF301DE04FF40273D8
:40574000ADF80C300CBF234604F1FF33029305934FF6FF7300910491ADF80E3002461E9B6946284600F072F8431CBCBF8B232B6014B1009B00221A701BB030BD07B5009362
:4057800013460A46014603480068FFF7CCFF03B05DF804FB8081FF1F2DE9F0478E6882469E420C46914698463ED88A8912F4906F3AD02568096902236F1A656905EB450580
:4057C00095FBF3F57B1C43449D4238BF1D4653050FD5294600F040FB064698B13A462169FFF78EFFA38923F4906343F08003A38113E02A4600F08EFB064670B92169504661
:4058000000F0DEFA0C23CAF80030A3894FF0FF3043F04003A381BDE8F08726613E44266046466561ED1BA560464528BF464649463246206800F0A8FAA36800209B1BA3603E
:4058400023681E442660BDE8F08700002DE9F04F9DB003938B8980461C060D4616460DD50B695BB9402100F0F7FA2860286118B90C23C8F80030CDE040236B61002309936E
:4058800020238DF82930DFF89CB130238DF82A3037463C4614F8013B1BB9B7EB060910D003E0252BF9D02746F3E74B46324629464046FFF771FF013000F0A780099B4B44A3
:4058C00009933B78002B00F0A08000234FF0FF3204930793059206938DF853301A930126052221784E4800F041FA671C049B38B14B4A3C46801A06FA00F018430490EFE75C
:40590000D90644BF20228DF853201A0744BF2B228DF8532022782A2A03D0079A00210A200BE0039A111D12680391002A10DA524243F00200079204900BE027463B78013427
:40594000303B092B03D800FB02320121F5E701B107923B782E2B1ED17B782A2B0AD1039B02371A1D1B680392002BB8BF4FF0FF33059310E0002319460593781C0A2407462D
:405980003A780130303A092A03D804FB01210123F5E703B1059103223978224800F0E6F940B14023CBEB000003FA00F0049B013718430490397806221B487E1C8DF82810C2
:4059C00000F0D4F988B1194B33B9039B073323F007030833039314E003AB00932A46144B04A94046AFF3008007E003AB00932A460F4B04A9404600F093F8B0F1FF3F8246FB
:405A000003D0099B5344099342E7AB895B0601D4099801E04FF0FF301DB0BDE8F08F00BFAA680000B0680000B468000000000000995700002DE9F04791461F460A698B6864
:405A400006469342B8BF1346C9F8003091F843200C46DDF8208012B10133C9F800302368990642BFD9F800300233C9F80030256815F0060510D104F1190A07E0012352461E
:405A800039463046C04701301AD00135E368D9F800209B1A9D42F1DB94F843302268003318BF012392060FD5E118302081F843005A1C94F845102244023382F8431003E023
:405AC0004FF0FF30BDE8F08704F1430239463046C0470130F4D02268D9F80050E36802F00602042A08BF5D1B2269A3680CBF25EAE57500259342C4BF9B1AED184FF000094B
:405B00001A344D4509D00123224639463046C0470130D5D009F10109F3E70020BDE8F0872DE9F04317460A7E85B06E2A984606460C460C9B01F1430E00F0AE8011D8632A3F
:405B400022D009D8002A00F0BB80582A40F0CA8081F84520834955E0642A1ED0692A1CD0C0E0732A00F0B08009D86F2A2ED0702A40F0B8800A6842F020020A603EE0752A63
:405B800024D0782A3AD0ADE01A6801F14205111D1960136884F84230A8E021681A6811F0800F02D0111D196008E011F0400F02F10401196002D0B2F9003000E01368002B75
:405BC0003CDA2D225B4284F8432037E021681A6811F0800F02D0111D196007E011F0400F02F10401196001D0138800E01368227E5C496F2A14BF0A2208221BE078225A49EB
:405C000084F845202268186812F0800F00F104051D6003D1550601D5038800E00368D00744BF42F0200222601BB9226822F0200222601022002084F8430001E049490A2222
:405C40006568002DA56008DB206820F0040020602BB9002D7DD175460CE0002B79D07546B3FBF2F002FB1033CB5C05F8013D03460028F5D1082A0BD12368DA0708D52369A5
:405C800062689A42DEBF302305F8013C05F1FF35C5EB0E0323612EE008681A6810F0800F496903D0101D1860136808E010F0400F02F104001860136801D0198000E019608D
:405CC00000232361754616E01A68111D1960156800216268284600F049F808B1401B6060636804E004F1420584F8422001232361002384F84330CDF800803B4603AA2146EB
:405D00003046FFF797FE013002D14FF0FF3026E023692A4639463046C0470130F5D023689B0710D5002504F1190907E001234A4639463046C0470130E7D00135E368039A11
:405D40009B1A9D42F2DBE068039B9842B8BF184605E00B7804F1420584F842308AE705B0BDE8F083BB680000CC68000010B5C9B202449042034605D01C7801308C42F8D134
:405D8000184610BD002010BD884210B501EB020301D8421E0BE09842FBD28118D21AD34204D013F8014D01F8014DF8E710BD994204D011F8014B02F8014FF8E710BD0000CC
:405DC00038B50546002944D051F8043C0C1F002BB8BFE41800F0D4F81E4A1368114613B96360146030E0A3420DD92268A018834201BF18685B681218226063600C6023E020
:405E0000A24203D813465A68002AF9D118681918A1420BD12168014458188242196013D110685268014419605A600DE002D90C232B6009E021686018824201BF10685268F9
:405E40000918216062605C602846BDE8384000F098B838BD5C08002070B5CD1C25F0030508350C2D38BF0C25002D064601DBA94202D90C23336046E000F082F8234B1C6896
:405E80001A462146A1B10B685B1B0ED40B2B03D90B60CC18CD501EE08C420BBF63684B681360636018BF0C4615E00C464968E9E7174C23681BB9304600F052F820602946E4
:405EC000304600F04DF8431C18D0C41C24F00304A0420DD12560304600F053F804F10B00231D20F00700C31A0ED05A42E25070BD211A304600F034F80130EBD10C23336036
:405F0000304600F03EF8002070BD00BF5C08002058080020F8B5074615460E4621B91146BDE8F840FFF798BF1AB9FFF749FF2846F8BD00F027F885420ED929463846FFF7DD
:405F40008BFF044650B131462A46FFF7D9FB31463846FFF735FF01E03046F8BD2046F8BD38B5064C0023054608462360FEF768FF431C02D1236803B12B6038BDA40B0020BB
:405F80007047704751F8040C0028BEBF091851F8043CC01804387047000000002573203A202573203A202573000000000D0A0000696E646576207461736B207374617274F6
:405FC000656400002E2E5C6C76676C5C6C765F636F72655C6C765F696E6465762E630000696E646576207461736B2066696E69736865640053637265656E206372656174FF
:406000006520737461727465640000002E2E5C6C76676C5C6C765F636F72655C6C765F6F626A2E63000000004F7574206F66206D656D6F727921000053637265656E2063DE
:406040007265617465207265616479004F626A6563742063726561746520737461727465640000004F626A656374206372656174652072656164790043616E277420736513
:40608000742074686520706172656E74206F6620612073637265656E0000000043616E27742073657420706172656E74203D3D204E554C4C20746F20616E206F626A65637E
:4060C000740000006C765F696E69742073746172746564006C765F696E69742072656164790000006C765F6F626A0000496E76616C69642056444220706F696E7465720096
:406100002E2E5C6C76676C5C6C765F636F72655C6C765F726566722E6300000043616E2774207365742056444220686569676874207573696E672074686520726F756E6432
:406140002066756E6374696F6E2E202857726F6E6720726F756E645F6362206F7220746F20736D616C6C205644422900646973706C61792072656672657368207461736B70
:406180002073746172746564000000004E6F20646973706C6179206973207265676973746572656400000000646973706C61792072656672657368207461736B2066696E76
:4061C00069736865640000002E2E5C6C76676C5C6C765F636F72655C6C765F7664622E630000000004620000086200000C62000010620000146200001C620000246200004B
:406200002C6200008000000040C000002A80D40020609FDF1A4C80B2E600000015406A94BFEA000012375B80A4C8ED00103050708FAFCFEF8D3D00002D3A000099390000DE
:40624000D5380000FAF2DDC4A37A4A120055AAFF00112233445566778899AABBCCDDEEFF2E2E5C6C76676C5C6C765F647261775C6C765F647261775F7662617369632E63AA
:4062800000000000466F6E743A206368617261637465722773206269746D6170206E6F7420666F756E640000030000000108000004100000061800000520000006280000CB
:4062C000063000000338000003400000034800000550000005580000026000000568000001700000077800000580000005880000059000000598000005A0000005A8000098
:4063000005B0000005B8000005C0000005C8000001D0000002D8000004E0000005E8000004F0000006F8000006000100060801000610010006180100062001000628010049
:40634000063001000638010006400100034801000550010006580100066001000668010006700100067801000680010006880100069001000698010005A0010006A80100F2
:4063800006B0010006B8010006C0010005C8010005D0010003D8010007E0010003E8010005F0010005F80100030002000508020005100200051802000520020005280200B8
:4063C000063002000538020005400200034802000450020005580200036002000568020005700200057802000580020005880200059002000598020005A0020005A8020071
:4064000005B0020005B8020005C0020005C8020005D0020004D8020001E0020004E8020005F002000000000000000000808080800000800090909000000000004848FC48CF
:40644000FC4848002078A07028F0200000C4C810204C8C00609090609488740020408000000000002040808080402000804020202040800020A8702070A82000002020F8E4
:4064800020200000000000000040408000000000F800000000000000000080000204081020408000708898A8C88870002060A0202020F800708808106080F800708808309E
:4064C0000888700010305090F8101000F880F00808887000384080F088887000F8081020404040007088887088887000708888780810E000000080000080000000004000FC
:406500000040408010204080402010000000F800F800000080402010204080007884081010001000788494AC98807800304884FC84848400F88484F88484F80078848080C3
:4065400080847800F08884848488F000FC8080F08080FC00FC8080F0808080007884809C84847800848484FC84848400E04040404040E0000808080808887000848890E087
:4065800090888400808080808080FC0084CCB4848484840084C4A4948C8484007884848484847800F88484F8808080007884848494887400F88484F8908884007884807803
:4065C00004847800F8202020202020008484848484847800848484848448300084848484B4CC840084844830488484008888887020202000F80810204080F800E0808080B3
:406600008080E0008040201008040200E02020202020E000205088000000000000000000000000F8804020000000000000007008788878008080F0888888F00000007088EC
:4066400080887000080878888888780000007088F8807000182420F82020200000007888887808708080F088888888004000C0404040E000100030101010906080808890D6
:40668000E0908800C04040404040E0000000D0A8A8A8A8000000F0888888880000007088888870000000F08888F0808000007888887808080000B8C080808000000078801A
:4066C0007008F0004040F0404048300000008888888870000000888888502000000088A8A8A85000000088502050880000008888887808700000F8102040F800304040807A
:40670000404030008080808080808080C02020102020C00040A81000000000002E2E5C6C76676C5C6C765F68616C5C6C765F68616C5F646973702E63000000006469737040
:4067400020666C757368202073746172746564006469737020666C757368207265616479000000006469737020666C7573682066756E6374696F6E2072656769737465727C
:406780006564000069646E65762072656164207374617274656400002E2E5C6C76676C5C6C765F68616C5C6C765F68616C5F696E6465762E6300000069646E657620726503
:4067C00061642066696E697368656400696E6465762066756E6374696F6E2072656769737465726564000000436F756C646E277420616C6C6F63617465206D656D6F727962
:40680000000000002E2E5C6C76676C5C6C765F6D6973635C6C765F6D656D2E63000000002E2E5C6C76676C5C6C765F6D6973635C6C765F7461736B2E630000006C765F74E9
:4068400061736B5F68616E646C65722073746172746564006C765F7461736B5F68616E646C6572207265616479000000C84900401900004F00400C000051004010003051F8
:4068800000404000F0510040100000000140001000140140000800400140000A004C014000020050014020004300232D302B2000686C4C0065666745464700303132333422
:4068C0003536373839414243444546003031323334353637383961626364656600000000F8B500BFF8BC08BC9E4670474D000000BD4E0000F8B500BFF8BC08BC9E46704738
:406900002900000018690000C880FF1FC0000000208A000000000000000000000000000000000000F084FF1F200000007E00000024640000A8620000000000002D450000A9
:4069400051450000000000000861000000000000A80B0020675000400C000000070000000000E02EC05D00001800000000366E010000000000000000000000000000000053
:4069800000000000000000000000000000000000A86800000000000000000000000000000000000000000000000000000000000000000000000000000000000000000000C7
:4069C000000000000000000000000000000000002081FF1F0000000000000000000000000000000000000000000000000000000000000000000000000000000000000000D8
:406A00000000000000000000000000000000000000000000000000000000000000000000000000000000000000000000000000000000000000000000000000000000000056
:406A40000000000000000000000000000000000000000000000000000000000000000000000000000000000000000000000000000000000000000000000000000000000016
:406A800000000000000000000000000000000000000000000000000000000000000000000000000000000000000000000000000000000000000000000000000000000000D6
:406AC0000000000000000000000000000000000000000000000000000000000000000000000000000000000000000000000000000000000000000000000000000000000096
:020000040003F7
:0200000480007A
:40000000014F0040025200400107014001090140040A0140010B0140031501400117014001190140031B014004420140034301400348014010490140084C0140054D0140A4
:40004000015101400A4B60026403EE08AF20B820BE10D804DF011F20E008E401EA05E201E201E008E401EA053E106302CE20D6409610AF01EE1080089610E2801220164008
:4000800070087710822086409B10A008AA10AB10C430DC80DE20E010E480EAA01020132017087B107F408020C40EDE03831087409780A710AB2803C083000080830003007F
:4000C00000000000000B0B000000000000020200000000000000000000000000000000000000000000000000000000000000000000000000000000000000000000000000E6
:4001000000000000000000000000000000000000000000000000000000000000000000000000000000000000000000000000000000000000000000000000000000000000BF
:40014000000000000000000000000000000000000000000000000000000000000000000000000000000000000000000000000000000000000000000000000000000000007F
:40018000000000000000000000000000000000000000000000000000000000000000000000000000000000000000000000000000000000000000000000000000000000003F
:4001C00000000000000000000000000000000000000000000000000000000000000000000000000000000000000000000000000000000000000000000000000000000000FF
:0200000490006A
:0400000000004005B7
:0200000490105A
:04000000BC90ACAF55
:0200000490303A
:02000000448337
:0200000490402A
:4000000000000000000000000000000000000000000000000000000000000000000000000000000000000000000000000000000000000000000000000000000000000000C0
:400040000000000000000000000000000000000000000000000000000000000000000000000000000000000000000000000000000000000000000000000000000000000080
:400080000000000000000000000000000000000000000000000000000000000000000000000000000000000000000000000000000000000000000000000000000000000040
:4000C0000000000000000000000000000000000000000000000000000000000000000000000000000000000000000000000000000000000000000000000000000000000000
:0200000490501A
:0C00000000012E16106900012E3F54EC88
:00000001FF